:10000000C85E0020194E00001B680100494E000028
:10001000494E0000494E0000494E0000000000001B
:10002000000000000000000000000000B94B0000CC
:10003000494E000000000000714B000053670100B2
:10004000D94D000035010100D94D0000D94D000007
:10005000D94D0000D94D0000D94D0000D94D000008
:10006000D94D0000D94D0000D94D0000D94D0000F8
:10007000D94D0000D94D0000D94D0000D94D0000E8
:10008000D94D0000D94D0000D94D0000D94D0000D8
:10009000D94D0000D94D0000D94D0000D94D0000C8
:1000A000D94D0000D94D0000D94D0000D94D0000B8
:1000B000D94D0000D94D0000D94D0000D94D0000A8
:1000C000D94D0000D94D0000D94D0000D94D000098
:1000D000D94D0000D94D0000D94D0000D94D000088
:1000E000D94D0000D94D0000D94D0000D94D000078
:1000F000D94D0000D94D0000D94D0000D94D000068
:1001000053B94AB9002908BF00281CBF4FF0FF317E
:100110004FF0FF3000F06CB9ADF1080C6DE904CE82
:1001200000F006F8DDF804E0DDE9022304B07047D2
:100130002DE9F047089E0D4604468E46002B40F000
:1001400082808A42174646D9B2FA82F24AB1C2F197
:10015000200105FA02F320FA01F1974041EA030E6B
:1001600094404FEA1748230CBEFBF8FCB9B208FBD9
:100170001CEE43EA0E430CFB01F098420AD9FB182F
:100180000CF1FF3580F01681984240F21381ACF1FA
:10019000020C3B441B1AA4B2B3FBF8F008FB10336B
:1001A00044EA034400FB01F1A14209D93C1900F1E2
:1001B000FF3380F00181A14240F2FE8002383C44CE
:1001C000641A40EA0C4000211EB1D4400023C6E965
:1001D0000043BDE8F08702B9FFDEB2FA82F2002ADE
:1001E0004FD1CB1B4FEA174E1FFA87F80121B3FB03
:1001F000FEFC250C0EFB1C3345EA034508FB0CF303
:10020000AB4207D97D190CF1FF3002D2AB4200F2AC
:10021000E7808446ED1AA3B2B5FBFEF00EFB105545
:1002200043EA054408FB00F8A04507D93C1900F152
:10023000FF3302D2A04500F2D7801846A4EB080491
:1002400040EA0C40C0E78B4208D9002E00F0AF8096
:100250000021C6E900050846BDE8F087B3FA83F13E
:1002600000294BD1AB4202D3824200F2B780841AFC
:1002700065EB030301209E46002EAAD0C6E9004E7E
:10028000A7E7C2F1200C01FA02F3974020FA0CF024
:100290004FEA174E21FA0CFC1843BCFBFEF1050C8B
:1002A0000EFB11CC1FFA87F845EA0C4501FB08F359
:1002B000AB4204FA02F409D97D1901F1FF3C80F048
:1002C0008B80AB4240F2888002393D44EB1A85B204
:1002D000B3FBFEF00EFB103345EA034500FB08F3C9
:1002E000AB4207D97D1900F1FF3C71D2AB426FD907
:1002F00002383D44EB1A40EA014178E7C1F1200C95
:100300008B4022FA0CF71F4320FA0CF405FA01F394
:100310004FEA174E25FA0CF51C43230CB5FBFEF9EA
:100320001FFA87F80EFB195543EA054509FB08FA41
:10033000AA4502FA01F200FA01F308D97D1909F180
:10034000FF3047D2AA4545D9A9F102093D44A5EBA2
:100350000A05A4B2B5FBFEF00EFB105544EA0544B5
:1003600000FB08F8A04507D93C1900F1FF352DD254
:10037000A0452BD902383C4440EA0940A4EB0804CC
:10038000A0FB02894C45C6464D4619D316D05EB136
:10039000B3EB0E0264EB050404FA0CFCCA404CEA11
:1003A0000202CC40C6E900240021BDE8F0873146B6
:1003B00030460EE7AC46EDE6184601E74345E6D287
:1003C000B8EB020E69EB07050138E0E72846D3E7F2
:1003D00060468FE78146BAE7614677E708464BE714
:1003E000ACF1020C3D4415E702383C4426E700BF5F
:1003F000704700BF000000002DE9F04F8FB00223CE
:10040000A34C0C93002800F0E88094F8CC6016F020
:10041000010637D194F87C8094F8290094F82C20B8
:1004200027272D2307FB084800F0030017FB02379E
:10043000FF2384F82A300FF045F894F8DA0081079A
:1004400008F17D0804EB070921D4E05D3146C0F3D3
:10045000801007F009FA06220146054609F102005C
:1004600016F029FA0622294608F1020016F023FAAE
:10047000E35D5A0622D413F00E0F2BD1636A002BD2
:1004800000F012810C2630460FB0BDE8F08FC0F3AB
:100490008000324604F1DB010FF000FAFF2884F8F7
:1004A0002A0040F0D7817A4849460FF051F8784841
:1004B00041460FF04DF8E35D5A06DCD5062109F1FF
:1004C000020005F083FE002800F01882E35D13F0BF
:1004D0000E0FD3D094F828300121C3F342030DA8A6
:1004E0008DF8343005F0F2FF00286FD0E25D99F806
:1004F000013098F8011002F00F02022A12D0012AEE
:1005000000F00682C9008031002A40F0F9811033E2
:10051000DB0003F54D720A4403F59A73013803FBBF
:10052000002009E01033DB0000FB03F303F5AA739E
:100530000138642202FB003094F820305549E46110
:10054000002565F30003312284F820302260C4E9DD
:1005500005554DA3D3E90023C4E90155A0FB0101D2
:10056000FFF7CEFDB4F8D890E06007F077F9804649
:10057000B9F1000F07D1E55D05F00F05A5F1010503
:10058000B5FA85F56D0994F8280065F3000010F0C0
:10059000010584F8280000F061813F4DE3683F4A7F
:1005A000049300200CAF019305920321CDE9075776
:1005B000CDE90200069400904346022207F09CF821
:1005C00039460AF0BDF8002800F08481636A002BE8
:1005D0003FF458AF0AF0FAFB54E70D9394F8CC308F
:1005E000DD077FF54FAF20460AF0B8F8844204D00B
:1005F0002B4840F2E94103F039F894F82830D80745
:100600000DAD0ED50321244B00950122002007F0EB
:10061000DFF829460AF094F8002840F09F81022371
:100620000D9303211C4B00950222002007F0D0F807
:1006300029460AF085F8002840F07B8119480AF025
:10064000C9F8002840F0698111480AF093F8844203
:1006500004D0134840F20B5103F008F8636A0BB161
:100660000AF0B4FB94F8CC3000206FF3000384F858
:10067000CC300AF0DBFE0646002800F02881002678
:1006800030460FB0BDE8F08F8D49FD1A070000001D
:10069000E01D002000CA9A3B35A70000DDAC000039
:1006A000C0810100FC1D002009F0C2FF8246002825
:1006B00000F03D8109F0C8FF8346002800F0498121
:1006C0000BF05AFA0546002800F040814FF6FF7300
:1006D000806FAB8505F11C030B93002800F023818C
:1006E00005F16C0205F1680105F07CFDB5F86420A8
:1006F00095F840C095F83DE095F8DC0095F822119A
:100700009F4B2B6622F4EF6222F0070242F48872BC
:1007100042F00102A5F86420002262F3000C20F0F0
:10072000030021F0030185F840C00EF03F0E4FF0AA
:100730001B1C6EF07F0E85F8DC0085F822117F20EF
:100740009049C5F85CC04FF0060CC5E9132285F846
:100750003F206A866A636A65A5F8C820A5F8CC20A0
:10076000A5F8E82085F8EA20C5F80021A5F80421BD
:10077000A5F81821A5F8202185F82B21AA6785F86E
:100780003DE085F8C100A5F8C4C0C5F81C11C5F846
:100790002CA1A5F87C2095F872E195F89AC195F8FE
:1007A0007E0095F85211A5F8502162F3C30C62F354
:1007B000041E21F0070120F01F00A5F87021A5F804
:1007C0009821A5F8A42185F89AC185F872E185F8E9
:1007D000521185F87E000BF063FDA5F8D6000BF0F2
:1007E00065FDD5F8A8316849A5F8D8001940C5F8C5
:1007F000A8110BF061FD95F8AC1160F3020185F8CA
:10080000AC110BF05FFDC4E934AB0B9B636295F850
:10081000AC1195F820C0ED610301002203F07003D4
:1008200021F078010B4362F3000CC5E96E22C5E9A3
:100830006C22C5E90522C5F8C02185F8AC3185F8E0
:1008400020C00FF03BFF00283FF444AE0AF0BEFA90
:10085000032618E630460EF0FBFE24E64B48E2681D
:100860004B4BDFF840E10694A9FB0001912707FB01
:10087000091102F247171F600492464A09934FF686
:10088000FF7C05920CAF3CA3D3E90023CDE907E739
:100890000295CDF80CC0FFF733FC4346CDE900507C
:1008A00002222846032106F0D1FE394609F048FF0E
:1008B00000287FF48BAE94F8CC3043F0010384F829
:1008C000CC300AF0B3FD00287FF4D9AE01200EF041
:1008D000D7FDD8E5304905914AF2D832CDE907571E
:1008E00000920225CDE90300CDE9010006944346BC
:1008F000012203210C9506F0FFFED6E71226C2E581
:10090000062A3FF404AE4FF4DA734FF41B7205E687
:100910004FF4F2734FF47F7200E620484FF4A16168
:1009200002F0A4FE90E605F17000A867D8E607265D
:10093000A9E51B4809F012FF84423FF4A3AD174814
:1009400040F2025102F092FE0C269CE5584609F056
:1009500081FE504609F072FE072694E5104809F022
:10096000FDFE84423FF48EAD0C4840F2F34102F0AC
:100970007DFE0C2687E500BF8D49FD1A07000000AB
:1009800048014801FF4901000000FFF6002AE78402
:10099000C41E0020DDAC00007DAC0000C081010061
:1009A000E01D002035A70000F8B5194E9DF818404D
:1009B00096F8485015F0010721D196F832C0DFF8BB
:1009C00054E0A6F84210E40004F018040CF0670CA0
:1009D00044EAC01463F34205A2FB0E0144EA0C048E
:1009E000912303FB021186F8485007A3D3E90023A3
:1009F00086F83240FFF784FB70643846F8BD0C2758
:100A00003846F8BDAFF300808D49FD1A070000009D
:100A1000E81E0020002AE784F8B59DF81840104E23
:100A20000546E400807DEA8404F01804A3FB066711
:100A300000F06700912244EAC111014302FB0377F1
:100A4000A97505A3D3E9002330463946FFF758FBC3
:100A5000A862F8BDAFF300808D49FD1A07000000C1
:100A6000002AE784000000002DE9F04190F83230C0
:100A7000044600F1350190F8480003F0F903C0F393
:100A800040008EB060F3861384F8323002230B935B
:100A900006F0EAFEB4F8426094F820304848E46179
:100AA0000025A6FB000165F30003912202FB06115D
:100AB000C4E9055584F820303FA3D3E90023FFF7AC
:100AC0001FFB636C656006460933A6F13102934251
:100AD0004FF03101A56028BF6564216034BFE36039
:100AE000E26006F0BBFE676A0546002F43D006941D
:100AF000B4F842703248E268DFF8D0C00492A7FB35
:100B00000001912303FB07112E4B05934FF00008C2
:100B10000BAF29A3D3E90023CDF81CC00897CDF86B
:100B20000C80FFF7EDFA104619464FF47A72002355
:100B3000FFF7E6FA2B46029004220321CDF800804D
:100B40004046019606F0D8FD394609F0F9FD054604
:100B500068B994F8483043F0010384F848300AF04B
:100B600023FB044600B328460EB0BDE8F0810C20FC
:100B70000EB0BDE8F081E1680C9731310DAB0CAAE5
:100B800003200D970EF0A6FA0D990029AFD00E485C
:100B900009A3D3E90023A1FB0001FFF7B1FA0C9DE3
:100BA00020F07F400544A2E702200EF069FC2046B9
:100BB0000EB0BDE8F08100BF8D49FD1A07000000AE
:100BC000002AE784FDB1000000CA9A3B35A7000067
:100BD0002DE9F04F0446808D4FF6FF7398428DB09B
:100BE0000E46154600F0898094F8E93094F8E80044
:100BF00083420ED0C01A00F0030002281BD094F8E4
:100C0000292194F828319A4230D100200DB0BDE856
:100C1000F08F94F8527117F00108F0D194F8051193
:100C200094F804218A4200F06783981E012284F818
:100C3000E90084F8EA2094F8983194F899219A42CE
:100C400006D094F89A2102F00601042900F09C8352
:100C500094F8EA707B1E052B00F24883DFE813F05E
:100C60006400DF02860246030903AB012C4805F04D
:100C700063FA58B394F8283184F8293103790222B1
:100C800043F0030342710371C271D4F8B03194F898
:100C90002A2102722BB394F85221910721D494F89F
:100CA000AB21D2071DD4D4F8BC21934204BF1A68EB
:100CB000C4F8BC21D4F8B421B2B91A680260186033
:100CC0000368C4E96D000BB9C4F8C001B4F8CC00E6
:100CD00000289AD1B4F8C630012B14D9A4F8CC302E
:100CE00093E7D4F8B421A2B1D4F8B8311A680260FD
:100CF0001860C4F8B8010368E5E70A484FF4447186
:100D000002F0B4FC70E70133A4F8CC300DB0BDE8BC
:100D1000F08F0360C4E96C00C4F8B801D3E700BFEA
:100D20000043002064820100DFF83484D8F80030EA
:100D3000002B00F0C284E78E628E94F806311744CF
:100D40002F4413F00303BFB240F06E83B4F8EC906D
:100D5000A7EB09021FFA82FA12043FF550AF94F88C
:100D6000701194F8712194F8040184F805018A4205
:100D700094F8E80084F8E90009D094F8722102F0B0
:100D80000702052A04BF84F87111A4F8CC30D8F802
:100D900000309C4204BF0023C8F80030D4F8008122
:100DA000B8F1000F00F0B485D8F80000002800F07A
:100DB000AF85B4F80811E38D4268B4F80AC1C4F8ED
:100DC0000021994200F0BD86B4F80CE1A38DA8F88B
:100DD00006300A220023A8F82210A8F824C0A8F898
:100DE00026E088F8042088F82030414609F038FCD5
:100DF00009F040FC2368002B09DAD4E9011223F042
:100E000000438A422CBFB61876182360F61AE38D89
:100E1000B4F8088113FB0AF39BB2B3FBF8F118FB9B
:100E200001F292B293421FFA81FB80F05F85D31AE0
:100E3000C34840F2E24202FB03F3A3FB0001BEA35E
:100E4000D3E90023FFF75CF920F07F400644638E6E
:100E5000A9EB07071D4494F93D305F442F4440F24D
:100E6000E249002B678609FB08F5C0F2A886D4F892
:100E70001001B349B0A3D3E90023A0FB0101FFF7A0
:100E80003FF920F07F4909F10109AA46B4F80C2185
:100E9000B4F80A11AB4BA4F82E8042F2107000FB9C
:100EA0000252A94821862B442844B3FBF5F3013AAA
:100EB000B2FBF5F2B0FBF5F5A4F8C62098B28A1D96
:100EC0009042A4F8D200A4F8CA5002DD401A0638B5
:100ED00080B294F80631A4F8CE005F0744BF002327
:100EE000A4F8C8300221012012F072F80022022179
:100EF0008046012005F0C4F994494FF4E47220467D
:100F000005F050F9451DEDB2914B00942A460121A0
:100F1000002006F05DFC30F0020304D08D4840F65E
:100F2000681102F0A3FB864BAAFB03AB504682A3D9
:100F3000D3E900235946FFF7E3F8874A20F07F47BB
:100F4000A7FB02230721BAEB020001FB07336BEB7F
:100F500003014FF47A720023FFF7D2F8DFF804E2BE
:100F60007E49E268DFF800C2034694F93D0004922E
:100F700011EA200138BF71460020029305913346E3
:100F8000019708940694CDF800902A46CDF81CC02D
:100F90000390012106F0B0FB30F0020304D06D484D
:100FA00040F6821102F062FBB8F1000F40F0E585D7
:100FB0006FF047002AE6E38E628E94F8EC601344EB
:100FC0001D44F707ADB2334600F11A83B4F8EE20A2
:100FD000AD1A2A043FF513AE94F8DC2094F864A00F
:100FE00094F865B094F8E810B4F8628084F8E910D9
:100FF000D7070AF0070A0BF0070B40F1D285D4F8A7
:101000001C21150541F14680B4F8D85044F29029CE
:101010004D4528BF4D46B5F5A47F38BF4FF4A475A4
:1010200016F01C0F40F0EE86B4F8607016F0E00F7A
:101030000ED00B9394F8652094F85E00710961F36B
:10104000020284F865204A460AF07CFA0B9B80462F
:1010500094F8AC2194F86410D4F80061C2F3C00293
:1010600062F3C30184F86410002E00F0BC8730687E
:10107000002800F0B8874268C4F8002113F0020F7E
:1010800094F8643040F0DC8794F8652003F007039F
:101090009A4502F0070201F06080A18DF1804FF0C7
:1010A0000E0C002186F8201086F8213086F82220C8
:1010B00086F804C0314609F0D3FAD4F80061002E56
:1010C00000F09B873068002800F09787B4F8603004
:1010D0004268C4F80021BB4208D3AB4206D8B4F83A
:1010E0006230434502D34B4541F26881A4F86070F9
:1010F000A4F8628096F82030A28DF28043F00303BA
:1011000002210922317186F8203086F82120B4F8B6
:101110005E30B4F85C20B3841523328586F8233022
:101120003146A6F82680778509F09AFA09F0A2FAE6
:1011300065E500BFAFF300808D49FD1A0700000090
:1011400000CA9A3B7FC3C901FF596202501F0020A9
:101150001DB80000648201008D49FD1A1DE70000E2
:10116000D03B00206DE80000EDB7000094F8EC30B3
:1011700013F003057FF443ADA94804F0DDFF0646F4
:1011800000283FF43CAD94F93D30002B80F26B8594
:1011900094F8ED50002D00F05483037994F8DC208E
:1011A00043F00303D207037140F11787D4F81C31D1
:1011B0005B0740F11287112203234572C27103724B
:1011C0007771D4F8B031002284F8ED20002B00F0C4
:1011D000828394F85221950700F17D8394F8AB2126
:1011E000D00700F17883D4F8BC21934204BF1A6879
:1011F000C4F8BC21D4F8B421002A01F0BC80D4F892
:10120000B8311A6832601E60C4F8B8613368002BC8
:1012100000F0DF8694F8E83084F8E930EFE4E38EFC
:10122000618E94F8EC200B441D44D607ADB200F15A
:101230009981B4F8F230ED1A29043FF5E0AC94F846
:10124000E83084F8E93004F13805052204F1ED01B5
:10125000284615F030FB2846052105F037F994F8AB
:101260003D30012260F3050384F83D3084F8C42149
:10127000C5E46B4804F060FF00283FF4C0AC94F86C
:10128000E83084F8E930012302794371D4F8B031B1
:1012900042F0030212210271C171002B00F0C682DC
:1012A00094F85221910700F1C18294F8AB21D20742
:1012B00000F1BC82D4F8BC21934204BF1A68C4F880
:1012C000BC21D4F8B421002A01F04280D4F8B8310E
:1012D0001A6802601860C4F8B8010368002B00F0B7
:1012E0006485B4F8CA30A4F8CC3088E44D4840F2A4
:1012F000963102F0BBF982E494F8192194F818C1F0
:10130000624557D194F8212194F820C1624500F03C
:101310000883A2EB0C02D1077FF571AC94F822315F
:10132000DA0740F161879A0740F1538709F0C6F95F
:10133000014620B394F8203184F8213190F8203010
:10134000A28DC28043F0030381F8203002200622E0
:101350000C23087181F8212081F8233094F82301AF
:10136000B4F82421B4F82631A1F8273081F82400FC
:10137000A1F82520086809F073F909F07BF994F8C1
:10138000E80094F8E93035E402F00701062901F29B
:10139000698101A050F821F05D170000510C000098
:1013A000510C0000510C0000C3160000C3160000D1
:1013B000510C0000A2EB0C02D3077FF520AC94F88F
:1013C000DC1011F0010700F0958409F077F9074669
:1013D0000028D4D094F8183184F8193190F82030CE
:1013E000A28DC28043F0030309220220414687F800
:1013F0002030387187F8212087F8232007F1240056
:10140000082215F083FAD4F81C3187F82430C3F38E
:1014100007221B0C87F8252087F826303946A9E7D4
:101420000043002064820100012009F029F9804670
:1014300000283FF4E4ABC54804F07EFE05460028D2
:101440003FF4DDAB09F03AF9D8F80030D4F80021C8
:101450005A6094F80631C4F8008103F00303012BAD
:1014600000F00E86022B00F0DC8540F69301B848B0
:1014700002F0FCF80021238E94F806C12A793B443F
:10148000063398B26FF3010C0C23A4F8EC0084F837
:1014900006C142F003026B71D4F81031AD4F2A71CE
:1014A0000022EA71A7FB032394F8147122682F72BB
:1014B000B4F80871A5F80B70B4F80A71A5F80D70AE
:1014C000C3F38F23B4F80C71A5F80F70002AA5F8A8
:1014D0001100A5F80930C4F8F4600ADAD4E9010370
:1014E00022F0004283422CBFF31833189A1AC4F832
:1014F000F420994B05F109000122C4F8F000D960ED
:10150000104602219C6004F0EFFE002840F0BB85ED
:10151000D4F8B031002B00F0398394F852219007B1
:1015200000F1348394F8AB21D10700F12F83D4F874
:10153000BC21934204BF1A68C4F8BC21D4F8B4217A
:10154000002A00F02387D4F8B8311A682A601D6099
:10155000C4F8B8512B68002B7FF451ABC4F8C051CC
:10156000FFF74DBB794804F0E7FD064600283FF43D
:1015700046AB238E027994F8EC101D44AB1DA4F801
:10158000F2306FF30001012342F00302082084F8D7
:10159000EC1032717071F371052204F1ED01301815
:1015A00015F089F9D4F8B031B4F8F220A6F80D207E
:1015B000002B00F0098494F85221950700F104846F
:1015C00094F8AB21D00700F1FF83D4F8BC219342FB
:1015D00004BF1A68C4F8BC21D4F8B421002A00F072
:1015E000E586D4F8B8311A6832601E60C4F8B86174
:1015F0003368002B7FF403ABC4F8C061FFF7FFBA78
:10160000022009F03DF8804600283FF4F8AA4F4830
:1016100004F092FD074600283FF4F1AA94F8EC305C
:101620006FF30003C3F3421646EA930616F007066B
:1016300084F8EC30DBB240F0AD8594F8E820A4F8F3
:10164000EE609D0784F8E92000F12086334631469C
:1016500005227A713E723A797B72D4F8B031798181
:1016600042F0030218213A71F971002B00F0A183B6
:1016700094F85221900700F19C8394F8AB21D10794
:1016800000F19783D4F8BC21934204BF1A68C4F8D0
:10169000BC21D4F8B421002A00F08086D4F8B831F7
:1016A0001A683A601F60C4F8B8713B68002B7FF479
:1016B000A6AAC4F8C071FFF7A2BAC8F80040FFF7A5
:1016C0003ABB02F00702B4F89CC1B4F8A011B4F818
:1016D0009E91B4F8A281A4F85EC0042AA4F8621016
:1016E00000F0EB8494F89A31062262F3020384F846
:1016F0009A31D4F80071002F00F0B68438680028C1
:1017000000F0B28497F820304268B4F82CE0C4F8B6
:10171000002143F00303022287F820304FF0090A2A
:101720001523A7F806E0A7F824C0F9843A7187F8D2
:1017300023303946A7F82890A7F82A8087F821A0F7
:1017400008F08EFF08F096FFFFF782BA00430020F2
:10175000648201005917B7D1D0950120BE4804F02A
:10176000EBFC00283FF474AA94F89A21B4F89E1177
:10177000B4F8A231A4F8D6100127A4F8D83067F342
:10178000020284F89A2109270279477194F8DC70E3
:10179000D4F81CE1818142F0030202716FF004026F
:1017A0004FF0140C00210272FA0780F807C0417252
:1017B00040F14E841EF4006F00F0A48544F29021A5
:1017C0008B4228BF0B46B3F5A47F38BF4FF4A473F8
:1017D000D4F8B0214181C381002A00F0168494F826
:1017E00052319B0700F1118494F8AB31DF0700F10F
:1017F0000C84D4F8BC319A4204BF1368C4F8BC31DD
:10180000D4F8B431002B00F0FF85D4F8B8311A6851
:1018100002601860C4F8B8010268002A00F0298547
:10182000B4F8CA30A4F8CC30FFF712BAD4F8B42117
:10183000002A7FF44BAD0360C4E96C00C4F8B80122
:101840004CE504F17F073B462A4604F1EE0104F221
:101850005D1010F0DDFD3946102204F1A00015F0F6
:101860002AF8082204F1980104F1B90015F023F8D0
:1018700094F8972094F8B81094F87E3084F88F503C
:1018800042F0010265F3000143F00803012084F8EF
:10189000972084F8B81084F87E3084F8905084F84B
:1018A000915084F8925084F8935084F8945084F8BE
:1018B000955084F89650C4F8B050C4F8B4503279BA
:1018C0007071D4F8B03142F0030205213271F17128
:1018D000002B7FF47EACD4F8B421002A7FF48FACC7
:1018E0003360C4E96C66C4F8B86190E408FB113356
:1018F00040F2E24259489BB202FB03F3A3FB000112
:1019000053A3D3E90023FEF7FBFB361AFFF79FBA78
:10191000534840F6C40101F0A9FED8F80000FFF7D3
:1019200048BA94F871C194F87021944500F07C8213
:10193000DFF83081D8F80020002A00F0CD849442EE
:101940007FF45DA994F8722102F00702052A00F2E3
:1019500090860FF2080C5CF822F000BF691A0000B4
:10196000CD19000075190000F50B0000F50B000003
:10197000F50B0000BB073FF542A908F09FFE0146AA
:1019800000283FF4FCAC90F8203094F8722103203A
:1019900060F30202034384F87221A08D81F82030A5
:1019A000022718230F7181F82130B4F87421B4F89C
:1019B0007631C880B4F878018A84B4F87A21CB846F
:1019C0000F2308854A8581F82330D3E494F8737196
:1019D000002F40F0358594F93D30002BC0F2AB85E7
:1019E00094F8723194F87C01C4F81071052262F306
:1019F0000203012284F8723184F81421002800F0D7
:101A0000F385B4F87431B3FBF0F3134413FB00F324
:101A10009BB294F8722194F80601A4F80831C2F33D
:101A2000C0039B0020F0070243F002031343B4F805
:101A30007801B4F87A2184F80631013984F8051167
:101A4000A4F80A01A4F80C21FFF7D9B8AFF300807D
:101A50008D49FD1A070000000043002000CA9A3B90
:101A600064820100D03B0020DF48B4F83690B4F81F
:101A700032A004F061FB074600283FF480AC0279F5
:101A800094F87211042060F3020142F0030218205E
:101A900084F8721109EB0A033A717871B4F8740191
:101AA000B4F87611B4F8782138812B44B4F87A016F
:101AB0007981BA810F210022A7F811304FF0FF334E
:101AC000F881F9713A74FA743A757B75BB75FB75D8
:101AD0003B767B76BB76FB763B777B77BB7739466D
:101AE000204609F075FD2268B4F8CA30C8F80040F5
:101AF000002AC4F89061A4F8CC300ADAD4E90113C2
:101B000022F000428B422CBFF31873189B1AC4F8C2
:101B10009031B64B13370122C4F88C711046022164
:101B20009C6004F0E1FB00283FF429ACB04840F68B
:101B30007A3101F09BFD94F8E80094F8E930FFF762
:101B400059B8238E63457FF43FA940F2E243B4F8CD
:101B50000CE1B4F8C62003FB01FB42F2107303FB57
:101B60000EB3013BB3FBFBF39BB29A427FF42EA969
:101B7000032388F80430FFF738B901221046022108
:101B800004F07EFB6FF04700FFF740B8D4F8B421B3
:101B9000002A7FF4D8AC2B60C4E96C55C4F8B85166
:101BA000D9E4B4F8D85040F648094D4528BF4D4611
:101BB000B5F5A47F38BF4FF4A475FFF731BAE26CD6
:101BC000636C8C4F03FB1A23E3640FF01BFD80460C
:101BD00094F8DC00C0F382000FF016FD08EB000360
:101BE00005FB03F38448E26C94F8141103F57423A5
:101BF00003F23F23A0FB03034FEA934A0AFB0BF0D7
:101C00006B080244963B9A4209FB01FC28BF1A4626
:101C10004FF0000EC4E91232C4F844A070A3D3E917
:101C20000023C4F854C0C4F8E4E0A0FB0701FEF7A9
:101C300067FAD4F8103184467048A0FB0330800A5C
:101C400009FB00F066A3D3E90023A0FB0701A6EB84
:101C50000C06FEF755FAA5EB0A0AB4F8088120F045
:101C60007F49FFF713B904F17F073B462A4604F189
:101C7000EE0104F25D1010F0CBFB3946102204F1A6
:101C8000A00014F018FE082204F1980104F1B90034
:101C900014F011FE94F8971094F8B82094F87E3060
:101CA00084F88F5043F0080365F3000142F001020D
:101CB00084F8971084F87E3084F8905084F891501E
:101CC00084F8925084F8935084F8945084F8955096
:101CD00084F89650C4F8B050C4F8B45084F8B820D2
:101CE000311D204609F01AFED4F8B031002B7FF4E4
:101CF00070AAF0E53C4804F01FFA804600283FF443
:101D00003EAB94F819313E4AC4F81C21013B09222C
:101D100084F81931427194F93D200379002AACBF4F
:101D200008220E2243F00303C271082203713946D0
:101D3000104414F0EBFDD4F81C3188F80830C3F3DC
:101D400007221B0C88F8092088F80A30D4F8B03133
:101D5000002B00F0698194F85221970700F164810B
:101D600094F8AB21D00700F15F81D4F8BC219342F5
:101D700004BF1A68C4F8BC21D4F8B421002A00F0CA
:101D80004B83D4F8B8311A68C8F80020C3F8008033
:101D9000C4F8B881D8F80030002B00F0C582B4F840
:101DA000CA30A4F8CC30FFF7EABAC4F8C001FFF794
:101DB00098BAD4F8B421002A7FF470AC3B60C4E92F
:101DC0006C77C4F8B87171E4D4F8B421002A7FF4B8
:101DD00008AC3360C4E96C66C4F8B86109E400BFBC
:101DE0008D49FD1A0700000000430020E095012006
:101DF0006482010000CA9A3B83DE1B435917B7D1A6
:101E0000FF49010094F8642094F85C000B93C6F33A
:101E1000820161F3020284F864202A4609F092FBF1
:101E20000B9B0746FFF702B994F8987194F8992133
:101E3000BA4200F04D8194F89A1101F00702062A87
:101E400000F209840FF2040C5CF822F0FD1E000081
:101E5000F50B0000F50B0000F50B0000691E0000FB
:101E6000691E0000F50B0000B4F89C31A4F85E3048
:101E700001F00703B4F8A021B4F89E91B4F8A28150
:101E8000A4F86220042B00F0D1820B46062262F3F4
:101E9000020384F89A31D4F80071002F00F0AD826B
:101EA0003868002800F0A98297F820304268B4F81A
:101EB0002CC0C4F8002143F0030387F8203002222D
:101EC000092387F821303A71B4F85E10B4F8622023
:101ED000FA84152387F82330A7F806C0B984A7F839
:101EE00028903946A7F82A8008F0BAFB08F0C2FB10
:101EF00094F8E80094F8E930FEF77CBEDF4804F07F
:101F00001BF900283FF43BAA94F89A21B4F89E11DB
:101F1000B4F8A231A4F8D6100127A4F8D83067F39A
:101F20000202092784F89A210279477194F8DC703B
:101F3000818142F0030214214FF0000C0271FF076F
:101F4000D4F81C21C1716FF0040180F809C001723E
:101F500040F14882110540F1948244F2902293426C
:101F600028BF1346B3F5A47F38BF4FF4A473D4F849
:101F7000B0114281C381002900F0298294F85231C6
:101F80009B0700F1248294F8AB31DF0700F11F8238
:101F9000D4F8BC31994204BF0B68C4F8BC31D4F802
:101FA000B431002B00F04A83D4F8B8311A680260CB
:101FB0001860C4F8B8010368002B00F0E481B4F89D
:101FC000CA30A4F8CC3094F8E80094F8E930FEF771
:101FD00011BEC4F8C061FFF71DB90D233572F3714E
:101FE0000227FFF7EDB8A64840F63C6101F03EFB42
:101FF000306894F8EC30FFF73EB8A14840F66861CD
:1020000001F034FB3068FFF761B8D4F8B431002B2D
:102010007FF4FBAB0260C4E96C00C4F8B801FFF7C1
:10202000FCBB9849FFF727BAD4F8B421002A7FF403
:10203000A8AEC8F80030C4E96C88C4F8B881ABE633
:1020400094F8652003F0070302F00702FFF725B8B4
:1020500040F648018B4228BF0B46B3F5A47F38BF3A
:102060004FF4A473FFF7B4BB854840F60C5101F060
:10207000FDFA3868B4F85EC0B4F86210FFF742BBEE
:102080008149FFF7F8B97E4840F64D0101F0EEFABC
:10209000FFF73EBAD0057FF584ADB4F8D850B5F55A
:1020A000856F28BF4FF48565B5F5A47F38BF4FF421
:1020B000A4754FF48569FEF7B3BFB4F8A421002AD4
:1020C00040F0358184F89931A4F8CC20FFF711BB9A
:1020D00094F8A82194F8A91191423EF490AD94F897
:1020E000AA1101F00300032800F0E18100287EF42A
:1020F00086AD624804F020F8014600283FF43FA96D
:1021000094F8AA3194F8AC2194F8AB71012060F3F3
:102110000103C3F3820060F30202C3F3421060F3D1
:102120000612C7F34007087984F8AA3167F3C3029F
:1021300084F8AC21C3F3820C40F00300C3F34213D4
:10214000032716220871CA7181F808C04B724F71BB
:102150000022204609F03CFA21E693457EF49DAF2B
:1021600003233371314608F07BFAD4F80051002D77
:1021700000F096812868002800F092814368C4F836
:10218000003103232B71294608F06AFA08F072FA2D
:10219000FEF735BD238E1D44AB1DA4F8EE3008F0CC
:1021A0008DFAD8F80030D4F800215A60C4F80081C4
:1021B00008F084FA0368D4F800215A6094F8EC30EF
:1021C000B4F8EE10C4F80001C3F382065B09FFF710
:1021D0003FBA2B4840F62B3101F048FA94F8E8005A
:1021E00094F8E930FEF706BD244803F0A5FF002867
:1021F0003FF4C5A894F8212194F82231013A84F8DB
:102200002121027943F00103062184F8223142F0B2
:1022100003024171D4F8B03102710A216FF00E024D
:102220000C270172427205214FF0FF32C771817293
:10223000C2720273002B00F0938094F8522197072A
:1022400000F18E8094F8AB21D10700F18980D4F899
:10225000BC21934204BF1A68C4F8BC21D4F8B4214D
:10226000002A7FF4A1AE1A6802601860C4E96D000C
:10227000A1E6C4F8C001FFF7D3BA00BF00430020B5
:1022800064820100E9F00000E5F0000008F016FAB1
:102290000E23A28D88F8206088F8043094F864300A
:1022A000D8F80000A8F80620C3F3020388F821300C
:1022B00094F86530C3F3020388F82230414608F0F1
:1022C000CFF908F0D7F994F8EC30B4F8EE10C3F376
:1022D00082065B09FFF7BCB994F8723103F007037B
:1022E000052B00F2C68101A252F823F0691A000002
:1022F000CD19000075190000FF0B0000FF0B000056
:10230000FF0B00001EF4807F3FF4A2AEB3F5856F93
:1023100028BF4FF48563B3F5A47F38BF4FF4A4738F
:102320004FF48561FFF754BAC4F8C08137E594F8DB
:102330009A01B4F8A671A4F89E21002363F3020069
:1023400084F89A01A4F8A431A4F8A271FFF7D1B9D6
:102350001A68026018600368C4E96D00FEF7BEBF2A
:10236000D4F8B421002A7FF41FAE0360C4E96C00E6
:10237000C4F8B8011FE61A6832601E603368C4E909
:102380006D66FEF744BFC4F8C00118E61A682A60FB
:102390001D602B68C4E96D55FFF7DDB81A683A6017
:1023A0001F603B68C4E96D77FFF780B91A68326037
:1023B0001E603368C4E96D66FFF71BB903233371F0
:1023C000314608F04DF908F055F9FEF718BCD4F87D
:1023D000B431002B7FF4E8AD0160C4E96C00C4F8AF
:1023E000B801E8E540F64802934228BF1346B3F52A
:1023F000A47F38BF4FF4A473B9E5A34840F60C514D
:1024000001F034F938684FE5136803601060026822
:10241000C4E96D00FFF701BA1A68C8F80020C3F8D4
:102420000080D8F80030C4E96D88B5E4B4F8A42180
:10243000002A40F0CA8084F89971A4F8CC202AE5DB
:10244000924803F079FE014600283EF498AF0379E4
:1024500043F003030B71112003220F23C8714A714B
:102460000B7294F873314B720022204609F0B0F8D9
:1024700094F8703184F871310023C8F80030FEF709
:102480007EBFD205AED5B3F5856F28BF4FF4856307
:10249000B3F5A47F38BF4FF4A4734FF4856266E5AB
:1024A000794840F64B6101F0E1F8286866E60807D4
:1024B00084F8A921C1F3820240F1A28094F8AA21F4
:1024C000022161F3840284F8AA2194F8AA21570614
:1024D0004FEA521140F18C80022161F3471284F8D7
:1024E000AA2194F8AA1194F864C094F8650094F8AD
:1024F000AB21C1F382070CF0070C00F00700C2F318
:102500008002BC4508BF00275200B0EB511F42F0CB
:1025100001024FEA511108BF002142EA4112023B79
:1025200042EA8702062184F8E93084F8EC2084F836
:10253000EA10FEF78DBB554803F0FEFD014600286A
:102540003EF41DAF0379182243F003030371427177
:10255000B4F87421B4F87631B4F878010A81B4F88B
:102560007A214B8110238881CA81CB7194F87C3108
:102570000B74B4F87E31B4F88001B4F88221A1F86C
:102580001130B4F88431A1F81300B4F88601A1F831
:102590001520B4F88821A1F81730B4F88A31A1F8D1
:1025A0001D30A1F81900A1F81B2020463A4609F079
:1025B0000FF894F8703184F8713194F8E80094F8C9
:1025C000E930C8F80070FEF715BB00200B4660F339
:1025D0000203A4F89E21B4F8A62184F89A31A4F845
:1025E000A401A4F8A22156E4B4F87631FFF711BA99
:1025F000C8070FD5012161F3471284F8AA2170E7BB
:10260000D10710D594F8AA21012161F3840284F83E
:10261000AA215AE711F0040118BF042161F34712FF
:1026200084F8AA215DE712F004020DD094F8AA21E3
:10263000042161F3840284F8AA2146E70B68036051
:102640000860C4E96D00B6E494F8AA1162F384014D
:1026500084F8AA1139E70C4840F6345101F006F825
:10266000FEF78DBE084840F6345100F0FFFFFEF73C
:10267000EFBA054840F6384100F0F8FF94F8E8005A
:1026800094F8E930FEF7B6BA6482010000430020F6
:102690002DE9F04F16461A46376852F80C5B93B096
:1026A000894600211C46B96003F1080A09F132018C
:1026B0003B680A9380461046032214F0FCF804F1AC
:1026C0001C0709F12E010422504614F0F4F80522EB
:1026D00009F13E01384614F0EEF83846052103F0C2
:1026E000F5FE94F8212000F03F0060F30502012878
:1026F00084F821200AD999F8432002F01F010539F6
:10270000C2F304000B2984F8220002D913B0BDE8FB
:10271000F08FB9F83870678299F83BC099F83A1091
:1027200095F8DC0041EA0C215209A18262F3840091
:10273000B9F8363085F8DC00ADF830300EF062FFC5
:10274000024695F8DC000B92C0F382000EF05CFFAD
:102750000B9AC74B99F835C0A18A40F2E24BBFB241
:102760000BFB07F7104407FB00F000F5742000F2A4
:102770003F20A3FB00304FEA570EAEF19603800CCA
:102780000BFB0CFBA062C4F83CB0E362B9F83C3030
:10279000B84AADF83630184642F2107E80B20EFBD1
:1027A0000070B54B3A4401F1060E0138B2FBF7F266
:1027B000B0FBF7F0A5F8C60090B270453B44A5F811
:1027C000D200B3FBF7FCA5F8CAC002DD401A0638F8
:1027D00080B25146A5F8CE00042205F1E00014F0C5
:1027E0006AF899F820C009F1220BCCF380135946FE
:1027F000062210A88DF83C3014F05DF899F82020DE
:102800000A9B4FF48071A9F8201093F82A0096F8DB
:1028100016A0C2F340138DF838300B930DF02CFB4B
:1028200006220146002840F0E98009F12F0014F04B
:102830006DF8BAF1FF0F00F0EB805946504609F1F0
:1028400023020CF081FD99F82220023289F822201F
:1028500010A9062209F1290014F02DF895F8DC20C2
:10286000608AA18ABDF83630A9F83A30C2F38202F4
:10287000A9F8360089F83C20A9F83810284609F054
:1028800087F949462082A9F806004046D6F8048018
:1028900007F0E6FE238AA8F806300D2388F80430F6
:1028A0000B9BD8F80000002B00F0C38094F809E0DF
:1028B000237A94F80BC0A17A94F8212041EA0C21E4
:1028C00043EA0E234B4042F040020121638484F826
:1028D000212088F82010414607F0C2FE07F0CAFE0A
:1028E000D6F81080654A4FF0000B312308F25240B1
:1028F000A0FB02012B60C5E901BB5BA3D3E9002368
:10290000FDF7FEFBF368BDF83020A46AA3F5AE7AAC
:1029100020F07F4040F2E241AAEB080CE86001FBA6
:10292000021A01205A460221E2443F1B03F0A8FC90
:102930000A9C204608F01CFC821C514B0094D2B229
:102940005846012104F044FF01287FD00A9B93F8E8
:102950002830DB0772D4284609F01AF9DFF81CB1D9
:10296000A7FB0B8940A3D3E9002304464946404610
:10297000FDF7C6FB434A069520F07F47A7FB0223DD
:10298000072101FB073340F22111B66808913E4947
:1029900007913E490591B8EB020069EB0301EB6832
:1029A000049300254FF47A7200230395FDF7A8FBEA
:1029B0002DA3D3E900238446AAFB0B01CDE9017CBA
:1029C000FDF79EFB053420F07F40E4B2313E3346F4
:1029D000009022462846012104F08EFE30F00203CA
:1029E00004D02B484FF4917100F040FE01221046B4
:1029F000022103F045FC13B0BDE8F08F09F1280176
:102A000009F12F0013F057FFBAF1FF0F7FF415AF54
:102A10000622002109F1290013F078FF9DF83C30CF
:102A200089F8223010A9062209F1230013F043FF90
:102A300014E79DF8383088F820304CE70023012255
:102A400000931846114604F0C3FE84E707F09EFE8B
:102A50000A9B83423FF47AAF0D484FF4DE7100F0D9
:102A600005FE73E7AFF300808D49FD1A07000000F3
:102A700083DE1B437FC3C901FF59620200CA9A3B30
:102A800099E700008D49FD1A09E700001DE70000E5
:102A9000C4820100000000002DE9F041D0E90CC71C
:102AA000D0F82C800CEB07043034A0450E461546B8
:102AB00018D81B4F18A3D3E90023ACFB0701FDF77F
:102AC0001FFBA4EB080420F07F40306012A3D3E981
:102AD0000023A4FB0701FDF713FB20F07F402860D3
:102AE000BDE8F0810E4C0CA3D3E90023A8FB040140
:102AF000FDF706FB20F07F4307F130003360A0FBB9
:102B0000040105A3D3E90023FDF7FAFA20F07F4082
:102B10002860BDE8F08100BF8D49FD1A0700000064
:102B200000CA9A3B000000002DE9F04F91F8207098
:102B3000164612688FB00C464FF0000B1D46C2F8C7
:102B400008B0C7F3C013D2F800A08DF82C3028319C
:102B5000062281460CA82F6813F0ADFE94F8208061
:102B6000A4F820B0717D96F816B0C8F3401311F0A8
:102B700001018DF8283098464FF0060200F0E280FF
:102B800004F1220104F12F0013F095FEBBF1FF0FB9
:102B900000F0E080584604F1230204F122010CF019
:102BA000D3FB94F8223002330CA984F82230062299
:102BB00004F1290013F07FFE6B8AAA8AE386BAF833
:102BC0003030638722870EF01BFD84F83C003846C6
:102BD00008F0DEFF034628822146E38048467468F9
:102BE00007F03EFD2B8AE3800D2320682371B8F1A6
:102BF000000F00F0A28095F809E02B7A95F80BC041
:102C0000A97A95F8212041EA0C2143EA0E234B4092
:102C100042F0400201216B8485F8212084F82010C5
:102C2000214607F01DFD07F025FDD6F81090DFF8CE
:102C300060B1002409F2524031233B60C7E90144EE
:102C40004DA3D3E90023A0FB0B01FDF759FAB5F81A
:102C500012C0F36820F07F40F86022460221012074
:102C600040F2E24808FB0CF8A3F5877503F008FB77
:102C7000504608F0BFFB021DD2B2414B0092012129
:102C8000204604F0A5FD234603220121009420469E
:102C900004F09EFD384608F07BFF06974FF4197349
:102CA000D6F808C0374A0893374B07920593FB685C
:102CB0000493A5EB090588FB0B89461D2EA3D3E9D8
:102CC000002340464946ACF131070394FDF718FA5A
:102CD000104619464FF47A720023FDF711FA26A325
:102CE000D3E90023844649464046CDF808C0FDF7A5
:102CF00007FA21A3D3E900238446A5FB0B01CDF8F5
:102D000004C0FDF7FDF9F6B220F07F403B4600908D
:102D100032462046012104F0EFFC30F0020304D0DB
:102D20001A4840F2652100F0A1FC01221046022160
:102D300003F0A6FA0FB0BDE8F08F9DF8283084F8B4
:102D400020306DE704F12F0013F0E0FDBBF1FF0F21
:102D50007FF420AF0622002104F1290013F0D6FDF4
:102D60009DF82C3084F822300CA9062204F12300AF
:102D700013F0A1FD20E700BF8D49FD1A07000000F8
:102D800055E8000059E800006DE800001C830100D0
:102D900000CA9A3B000000002DE9F04F83B00446C2
:102DA0000FF0F4FD10F0FF0F12D10FF0D9FD0FF06E
:102DB000A7FE0FF08DFE10F0D7F80FF051FECA48B5
:102DC00021460FF099FC03B0BDE8F04F0FF0B0BD05
:102DD0000FF0FCFD5FFA80F80FF082FEC6B20FF034
:102DE00089FE074610F0CCF8C5B210F0B7F882465D
:102DF0000FF03EFE81460FF0B3FD0FF081FE0FF0A5
:102E000067FE10F0B1F80FF02BFE002E40F0AB8003
:102E1000002D40F0BA80FF27B8F1000FCFD0A37D7E
:102E2000190700F1A880002E40F0EE81012007F084
:102E300003FD8046002800F0FE81A3685FFA89F652
:102E4000002B00F0D580A37D1A0740F1E98198F8A6
:102E5000200010F00F0340F09E8098F82130252BC1
:102E600000F21681042007F0E7FC0028A7D00FF03D
:102E700083FFA36A814643B9E28C40F2712303FBCE
:102E800002F3B0FBF3F203FB120923689748DB68F7
:102E90000722A3FB000102FB031191A3D3E9002346
:102EA000FDF72EF9A0F242334B4588D30FF0BAFD5F
:102EB000D4F808A00FF098FD98F820200178C2F30C
:102EC0008012D20101F0500142F025020A43222172
:102ED00002704170834638460CF0DCFFE27D0090C2
:102EE000D207014640F12382002800F020829BF89F
:102EF0000020584642F0400200F8022B062213F050
:102F0000DAFC062208F122010BF1080013F0D3FCD1
:102F100004220AF108010BF10E0013F0CCFC03228D
:102F20000AF10C010BF1120013F0C5FC0122BAF8F2
:102F300012308BF8152001930FF01EFFD4F810907B
:102F400000F5DB62B9F1000F00F00382019B40F253
:102F5000E24101FB03F1B9F1000F02DB4A4540F207
:102F6000C7808944F7E7A07DF9B2C0F3C0000CF038
:102F7000AFFF074650E7002E7FF458AF38460DF0FC
:102F800019F800287FF452AF19E75FFA8AF00CF0C5
:102F9000DFFF074640E7012B4ED198F821300C2B7C
:102FA0007FF40DAF08F12809C00949463A460DF0F3
:102FB00097F800287FF456AFE37DDB0700F1E58149
:102FC000A37D98F82000C3F38012B2EBD01F00F06D
:102FD0000982C3F3C10398070AD598F92030002B62
:102FE00006DA98F82D3003F0C003402B3FF43AAFD7
:102FF00098F8200010F00F031ED198F82130252BEF
:103000003FF6DDAE94F91620002AC0F22081252B70
:1030100098BF4FF000093BD8002B3FF4D0AEA36817
:10302000002B7FF4CCAE002D14BF3946FF214A4659
:1030300030460EF0F5F9C2E6062B00F00281022BB5
:1030400000F05B81012B23D198F821300C2B7FF409
:10305000B6AE08F1280AC00951463A460DF040F8CC
:103060008146002840F08C81A37D98F82000C3F3AE
:103070008012B2EBD01F00F08F81C3F3C103980719
:1030800004D598F92030002BC0F2918198F82000E7
:1030900000F00F0004287FF492AE98F82130252B21
:1030A0003FF68DAEA37DDA077FF589AE0FF09CFC6D
:1030B00098F820300278C3F38013B3EBD21F7FF46B
:1030C0007EAE0830062208F1220113F0E4FB8146AF
:1030D00000287FF474AE98F821309DE7AFF30080AC
:1030E00000CA9A3B00000000AD1101008D49FD1A95
:1030F000C5489BF81510A9EB0202A0FB0232C2F3EF
:103100008F220131ABF816208BF81510BAF8120097
:10311000BAF81410A28AABF81C20ABF81800ABF870
:103120001A1005220AF11C010BF11E0013F0C3FB5B
:103130009AF822109BF8232061F304028BF82320D5
:103140000EF05EFA9BF8232060F347128BF82320E1
:1031500058460FF0BFFB0FF00FFC002840F0048131
:10316000AA4821460FF0C8FA002E40F0F8802279D4
:1031700042F00101D307217100F1FC8007F07AFBD6
:103180000822064602714FF6FF7298F82080C2802E
:1031900059462422203013F08EFB96F82030B4607C
:1031A000C8F3401868F3451386F820300FF088FD07
:1031B0000021306108460FF09DFB0021A9EB0000C3
:1031C000706108460FF08CFB002D08BFFF27B77712
:1031D000E37DB06113F0010300F0B980009BB3F10F
:1031E000000B18BF4FF0010B737F6BF30003737775
:1031F00007F040FB3146F060306807F053FB03B046
:10320000BDE8F04F07F05EBB394628460CF002FFE0
:1032100000287FF40BAEA37D1B077FF5D0AD05E63C
:10322000FF2F6DD0237EDB1BB3FA83F35B09002BEA
:103230007FF40DAEDCE6764840F2AA2100F016FAE3
:10324000FBE598F82130252B7FF6DCAE20E7A2685D
:10325000002A7FF4DCAE96200FF062FC00200FF015
:10326000C7FB002D14BF3946FF21304600220EF067
:10327000D7F800287FF4A3AD0FF0B6FB98F8203004
:103280000278C3F38013DB01054602F0700243F0BD
:10329000030313430C222B7038466A700CF0FAFDBE
:1032A000E37DDE07014640F18E80002800F08B8030
:1032B0002B78284643F0400300F8023B062213F027
:1032C000FAFA08F12201062205F1080013F0F3FAD8
:1032D00028460FF0FFFA0FF04FFB002840F08D80DA
:1032E0000FF042FDA37D4B4843F001032146A37537
:1032F00003B0BDE8F04F0FF0FFB998F8213086E633
:1033000098F82000C3F34013C0F3801293427FF477
:1033100071AE062208F1220104F11F0013F0BBFA7E
:10332000B0FA80F35B09002B7FF491AD60E6A27DDB
:103330009BF80010C2F38012584662F3861100F821
:10334000021B062204F1190113F0B5FAD9E59B46D8
:103350004AE78BF816908BF817909146D6E60FF057
:1033600079FB8AF8A50002E7294840F2233100F0F2
:103370007DF9F5E6264840F2493100F077F9FDE69F
:1033800098F821304FF0000946E638460CF082FDEF
:1033900000287FF42DAE13E65146062204F11900F1
:1033A00013F079FA00283FF496AEA37D65E698F80D
:1033B0002D3003F0C003402B7FF468AE98F8213025
:1033C0004FF0010928E6A37D2A78C3F3801328462D
:1033D00063F3861200F8022B04F11901062213F0A0
:1033E0006AFA6EE74946062204F1190013F053FA0F
:1033F00000283FF437ADA37DEBE5054840F2A53149
:1034000000F034F96CE700BF5917B7D1751301000C
:10341000E4840100C11101002DE9F341124B134C6A
:10342000134E144FDFF85080E41AE408CC23CDE9A2
:1034300000634FF0FF324FF0FF33384613F063FB69
:10344000054602F011FE014650B1A20142F0010210
:10345000404612F081FDD1223146284610F074F822
:1034600011F016FEE2E700BFE47C0100BC7D010024
:10347000CF8B0100F09701203C8B010010B50F4865
:103480000F4C11F055F8206098B112F02CFA20681A
:1034900012F024FA2268536823B19B6C13B10949D6
:1034A00010469847206843689B6A2BB198470020D4
:1034B00010BD6FF01500FBE71846F9E7548B0100CB
:1034C0004C000020C93400002DE9F0435C4A5D4CFB
:1034D0005D4F5E4DA41A85B0E408B846386843686D
:1034E0005B6C83B1984770B1386843681B6C53B10B
:1034F000984740B1386843685B6B3BB9D8F8000027
:1035000043685B6AC3B905B0BDE8F08398470028FB
:10351000F4D02B68002B53D10DF10B063868012233
:10352000314612F0FCF9012808D0A101484841F0C9
:10353000020112F004FDD1E79847E4E7CDE900600D
:1035400000220023042002F007FDDFF81C9106464C
:10355000C9F800000028D6D0037D53B1022B46D015
:10356000A2019DF80B103B4842F0010212F0F4FC5E
:10357000C9E703231A4603A9D8F8000012F0CFF9CF
:103580009DF80E302B60032203A906F1080013F00A
:10359000EBFAD9F80000083013F010FB2B689842C2
:1035A0000ED2A1012C4841F0010112F0C8FC2B49B8
:1035B000D9F80000A7220FF0C7FF0023C9F8003098
:1035C000DFF8A490D8F80000D9F800302A68FBB9D9
:1035D000114612F090F9A2010646014642F002029D
:1035E0001F4812F0B9FC2868801B286076E7042386
:1035F0001A4603A9D8F8000012F091F9042203A991
:1036000006F1080013F0B0FABDF80E302B60C0E7E9
:103610009E6899890023314412F081F9D9F800108D
:103620002E688B89361A03448B812E60002E7FF41E
:1036300055AF0C4813F085FAC9F800604EE700BF9B
:10364000E47C0100BC7D01004C0000205000002003
:103650005B8B0100798B01008C8B0100C38B010017
:10366000A78B0100F097012048000020F8B505461F
:103670000F464FF02002EFF3118382F31188BFF35E
:103680006F8F234C206812F02EF9206812F026F973
:10369000002D36D12E462068042112F029F9206829
:1036A000FF2112F025F9B11D2068C9B212F020F9EE
:1036B0002068AA2112F01CF936B1013D15F8011F4E
:1036C000206809BB12F014F92068F9B212F010F961
:1036D0002068C7F3072112F00BF92068C7F30741F0
:1036E00012F006F92068390E12F002F9FEE70133F4
:1036F0002F2A08BF1E46EA5C002AF8D135449E1BDB
:10370000C9E700263346F6E712F0F2F8D6E700BF25
:103710004C0000202DE9F0411C4888B002F0AAFCC2
:1037200000220023CDE9062300236FF00802CDE933
:103730000323CDE9013300931549164B1648174D65
:10374000174E4FF4806211F0A5FD40F25F13CDE9F2
:1037500000530E484FF0FF324FF0FF3313F0D3F910
:10376000044600F10807A3892BB90E49E42220463C
:103770000FF0EAFEE9E73846D6F8008013F016FAB3
:103780000146404612F0B4F8EDE700BFE097012093
:10379000085000201934000054000020E18B010083
:1037A0004C000020D98B01002DE9F04F85B09B46DD
:1037B0000E9CDFF89090012CB8BF0124012B0CBFA8
:1037C00030232023154606468A46029301274FF0F0
:1037D0000A080022B5FBF9F301930AB9A9451FD8DD
:1037E000019B514603F13000B04701370122019B94
:1037F00008F1FF38B8F1010F09FB13554FF00A0328
:10380000B9FBF3F9E6D1514605F13000B047BBF101
:10381000030F02D1E41B002C0EDC05B0BDE8F08FD5
:103820004445E4DBBBF1020FE1D802980392514614
:10383000B0470137039ADAE751462020B047013CF0
:10384000E9E700BF00CA9A3B014B1860704700BF10
:10385000909201202DE9F04F8DB01C460027531E99
:1038600005468B4603934FF0FF39B846002605E026
:103870006EB9252800F071815946A847039B13F8BB
:10388000010F03930028F3D10DB0BDE8F08F7A2823
:103890000AD8622810D8302854D045D8252800F0FE
:1038A0005A812D2800F05F8159462520A847039BA7
:1038B00018785946A847D9E7A0F16303172BF3D826
:1038C00001A252F823F000BF4F3B000093390000E3
:1038D000A9380000A9380000A93800007539000097
:1038E00093390000A9380000A9380000753900009C
:1038F000A9380000A9380000A9380000353A0000B6
:10390000A9380000A93800001F3B0000A9380000BA
:10391000033A0000A9380000A9380000313900003E
:10392000A93800007539000039281AD95828BBD1A8
:10393000039B1B78702B40F0888054F8043B06935F
:10394000002290E0B9F1000F0EDAB8F1000F00F09C
:103950000D81A0F13009B8F1000F08BF4FF0020847
:103960008CE7B9F1000FF4DB0A2303FB0909A9F185
:103970003009F0E7682803D1682F06D148277DE792
:103980006C2802D16C2F00F0F480002F8CD10746F8
:1039900074E77A2F02D154F8046B21E06C2FFAD02F
:1039A0004C2FF8D1073424F00704F4E80223CDE9C2
:1039B0000423049B13F10041059B089143F100018E
:1039C0000991DDE9082300214FF0FF30994208BF3B
:1039D000904204D25946284611F0BDFF46E7049EA6
:1039E000002E05DA59462D20A847764209F1FF3905
:1039F000CDF800904346324659462846FFF7D4FE9C
:103A000034E77A2F02D154F8042B0FE06C2FFAD050
:103A10004C2FF8D1073424F00704F4E802230021E6
:103A20004FF0FF30994208BF9042D3D3CDF80090B9
:103A30004346E1E759463020A84759467820A84731
:103A40004FF008094FF0010872E76C2F3FF475AF93
:103A50004C2F7FF472AFE31D23F007031C4654F88C
:103A6000082B06925A6800211023049107914FF009
:103A7000400AAAF1040A0699CAF1200EAAF1200C04
:103A800021FA0AF002FA0EFE40EA0E0022FA0CFCBD
:103A900040EA0C0010F00F0007D1079911B9BAF1F4
:103AA000000F25D14FF0300C05E009288CBF4FF0F6
:103AB000570C4FF0300C6044594640B20A920793BD
:103AC000A847049B0A9A01330493079BBAF1000F9D
:103AD00023D1B8F1030F7FF4C9AE049BC3EB4906B1
:103AE000002E7FF7C3AE59462020A847013EF7E7D6
:103AF000591E99450A9107DBB8F1010F06D10B92C7
:103B000059463020A8470B9A0A9BB2E7B8F1020F3A
:103B1000FAD10B9259462020F4E70796A9E754F80A
:103B2000046BB24653461AF8010B68B9B8F1030F9B
:103B300021D19E1BA9EB0606002E7FF797AE5946B2
:103B40002020A847013EF7E75946A847EAE754F87E
:103B5000040B5946AEE65946ACE63746B0464FF040
:103B6000FF3901268AE64FF0030887E64FF0010887
:103B700084E64C2782E6064680E600BF30B585B075
:103B8000CDE90101044600250548039501A9FFF789
:103B900061FEDDE902309842B8BF255405B030BD62
:103BA0007359010030B51049104889B0002213F054
:103BB00005FE0F4D0F4900220023CDE90623002406
:103BC0000E23CDE90334CDE901440B4B00944FF4AF
:103BD0004072284611F05EFB0849284613F0F7FCB6
:103BE000204609B030BD00BF013C000000000020AD
:103BF000F80000200854002019400000E68B010066
:103C0000014811F0B9BA00BF8897012008B500F04B
:103C100065FA094812F050F9042328220749084898
:103C200013F086FA074B084A1A604FF40040BDE8CB
:103C3000084000F099BC00BFD4000020086A0020B2
:103C4000DC00002094920120F75E0100F8B50F4BD4
:103C5000BFF35B8F002553E8007F43E80052002A42
:103C6000F9D1BFF35B8F0A4C0A4E361B3611B542B1
:103C700000DBF8BD63685B792BB12368DB6813B1A7
:103C800039462046984701351034F0E7CC00002033
:103C9000FC7D01000C7E0100064BBFF35B8F53E8F7
:103CA000002F013243E800210029F8D1BFF35B8FD8
:103CB000704700BFCC000020044A054B9B1AB1EBB3
:103CC000D30F34BF52F8310000207047E47C01006C
:103CD000FC7D0100094B4268C31A1B11013310B56A
:103CE00013714368064C196001225A71227812B987
:103CF000044811F041FA0123237010BDFC7D01003E
:103D0000AA4B00208897012070B5114BBFF35B8F41
:103D100053E8005F6A1C43E800210029F8D1BFF393
:103D20005B8F2DB90B4C0C4E361B3611B54200DBA8
:103D300070BD237B43B123685B6903B198470422BC
:103D400000212046FFF7C6FF01351034EEE700BF23
:103D5000D0000020FC7D01000C7E0100164B984233
:103D600037B5044602D3154B984220D3144800229D
:103D7000002301A910F09CFD0546D8B90122019B42
:103D8000BFF35B8F53E8001F43E800200028F9D100
:103D9000BFF35B8F019821461F22043012F04EFDC5
:103DA000019C7E2384F8233084F824500434204678
:103DB00003B030BD034CFAE7987A01001894010073
:103DC000DC000020EE8B010048B1054B984205D382
:103DD000A03398422CBF002001207047002070477C
:103DE000086A00202DE9F04F4C4B1B7885B0044643
:103DF00003B960B34FF02003EFF3118683F311880A
:103E0000BFF36F8F464812F067F8054686F31188B6
:103E1000BFF36F8F78B1BFF35B8F424B53E8002F36
:103E2000013A43E800210029F8D1BFF35B8F94B138
:103E3000284612F07FF924B93B4B1B680BB1FFF702
:103E400005FF374812F046F8041E18BF012420462B
:103E500005B0BDE8F08F354B1B78CBB92B7ADB076B
:103E600016D412F07AF98046284612F041F901463C
:103E7000404612F044F82E4F2E4BDFF8D4B0DB1B37
:103E8000DB0803932C4BDB1B06464FEAD30A36B9FB
:103E90002A4E2B4FBF1B3F114FF000083AE0B6FAF5
:103EA00086F1C1F11F094946284612F024F9254B35
:103EB0009842014602D3244B98421AD30846FFF792
:103EC00083FF0246A8B9214B994212D06B8903990E
:103ED000C3F389138B4238BF57F833204FEA8A1354
:103EE00043F00103ADF8003049464346584612F00E
:103EF00060F8012101FA09F126EA0106C7E77368B3
:103F00005B7923B1336829461B683046984708F12E
:103F100001081036B845F2DB8AE700BFAA4B002043
:103F2000D4000020C8000020CC000020AB4B0020B3
:103F3000E47C0100FC7D0100C47D0100FC7D0100EA
:103F40000C7E0100987A010018940100EE8B0100AC
:103F5000088C0100294B73B51B68418104469847C2
:103F6000274DE060BFF35B8F55E8003F013345E824
:103F70000032002AF8D1BFF35B8F4FF02003EFF33C
:103F8000118683F31188BFF36F8F1E48214611F00D
:103F900097FF86F31188BFF36F8F1B4B1B7883B19C
:103FA0004FF02003EFF3118483F31188BFF36F8F79
:103FB0000020FFF717FF84F31188BFF36F8F02B063
:103FC00070BD124A2B681268002AF8D0012B0AD162
:103FD00000220023CDE900230D484FF400420023C6
:103FE00011F094FBEBE70A2BE9D1094813F0F2FB3F
:103FF000084802B0BDE8704011F0BEB894920120AC
:10400000C8000020D4000020AB4B00206C01002031
:10401000000000208897012010B5FFF775FE11F011
:10402000A5F80C4B186030B10B4B1B68092B02DD57
:104030000A4811F0A1F8094C0020FFF7D3FE002830
:10404000FAD14FF0FF324FF0FF33204611F0BAF8AB
:10405000F2E700BF6C010020C80000208897012013
:10406000F8B50E4F3D7875B90D4C0E4EFFF74CFE6E
:10407000361B3611B54207DB0020FFF7B3FE0028E0
:10408000FAD101233B70F8BD63685B791BB12368EB
:1040900020461B69984701351034EBE7AB4B0020F5
:1040A000FC7D01000C7E010007B504380190BFF3D0
:1040B0005B8F50E8003F5A1E40E800210029F8D1EC
:1040C000BFF35B8F012B03D1034801A910F022FC41
:1040D00003B05DF804FB00BFDC0000202023024990
:1040E00002481A4613F024B8A86A00207001002084
:1040F00037B50023094D01930120FFF773FE0446F5
:10410000FFF7CAFD0022002301A9284610F0D0FBCA
:1041100008B1002CF0D1019803B030BD700100202F
:1041200007B50023019307480022002301A910F0DE
:10413000BFFB10B1FFF7DCFF0190019803B05DF801
:1041400004FB00BF70010020F0B5037A457A85B00A
:104150002D090190D8071CD4DDB100242646019812
:10416000314611F0C8FF0746FFF72EFE70B134B993
:10417000019B2946186911F0C2FE044648B124FA91
:1041800006F3D90702D53846FFF78EFF0136AE4257
:10419000E5D3019B1A7A920704D55B69084C039317
:1041A000039B2BB9064801A910F0B4FB05B0F0BD84
:1041B0001D6803A9204610F0ADFB0395F0E700BF92
:1041C000700100200EB403B503AB014653F8042B75
:1041D00004480193FFF73EFB002002B05DF804EBBA
:1041E00003B07047A96501002DE9F04F85B011F0CB
:1041F000020490469DF8387006461A4601F00109FF
:1042000001F0080507D011F0440F37D13249FFF70C
:10421000D9FF01460C46B9F1000F0AD02F4B3049A7
:1042200053F827202F4B3046002A08BF1A46FFF7C5
:10423000C9FF3DB12C4B2D4953F827203046FFF7DD
:10424000C1FF0546B8F1000F43D0012303FA07F779
:10425000274B17F0100F274F18BF1F46BDF840100F
:104260009DF83C00FFF728FD394602463046FFF72F
:10427000A9FF2844204405B0BDE8F08F1E4B196803
:104280000029C7D01D4B4FF4616E1B68B2FBF3F3DE
:104290004FF47A7CB3FBF1F4B4FBFEF20EFB124E4A
:1042A00001FB14340CFB04F44FF03C0AB4FBF1FBAB
:1042B00001FB1B440CFB04F4BEFBFAF3B4FBF1F16D
:1042C000CDE901B10AFB13E100910D49FFF77AFF37
:1042D0009FE7084FC2E700BF598C0100287E01000C
:1042E0007E8C01004B8C01003C7E0100818C010022
:1042F000558C0100508C01008C01002090010020A1
:10430000628C010038B50C46E107054603D5084A22
:104310000849FFF757FFE20608D4A30628464CBF1A
:1043200005490649BDE83840FFF74CBF38BD00BF1E
:104330004B8C01007E8C0100888C0100878C010071
:104340002DE9F0471D46089B1746DA0604460E463F
:1043500005D499064CBF2A492A49FFF733FFDFF8F5
:10436000AC904FF00008A8452ADBDFF8A480DFF806
:10437000A490DFF898A00025BD422FD2725D494677
:104380002046FFF71FFF0135102D20D11E49DFF811
:104390007C80DFF884902046FFF714FF0025AF42B1
:1043A00028D9725DA2F120035F2B28BF2E22494637
:1043B0002046FFF707FF0135102D14D1BDE8F08727
:1043C00049462046FFF7FEFE08F10108CBE76A07E1
:1043D000D2D151462046FFF7F5FECDE741462046B3
:1043E000FFF7F0FECFE76B07D9D141462046FFF734
:1043F000E9FED4E741462046FFF7E4FEDBE700BFD5
:10440000888C0100878C0100948C0100928C010043
:10441000908C01008A8C0100968C01002DE9F047F8
:104420008B7A13F0070817468AB00A7A05460E46BB
:1044300021D04989C3F3C203C1F38911D243CDE925
:1044400000830291F36802F001023946FFF7CCFEC7
:104450008146347AE44314F001040ED029463046F4
:1044600011F038FFB8F1000F2BD0424639462846EC
:10447000FFF748FF25E0C146EBE7B8F1000F26D172
:104480002746EB68069306AA3B46A968304611F01A
:104490000DFF069A6B681A603AB1AB68134413F8C3
:1044A000014CA4F10A035C425C41284612F06FF80B
:1044B000069B1F44002BE4D11CB114492846FFF78A
:1044C00081FE284612F063F80AB0BDE8F087304656
:1044D00011F043FE0E4902462846FFF773FE4FF0E7
:1044E000100A05AA234606A93046CDF814A011F0FB
:1044F000DDFE059A002AB8D04B46009706A928464B
:10450000FFF71EFF059B1C44EBE700BF998C0100E1
:104510007E8C010073B5D0E900435D680F4A42F21A
:104520000F738B4228BF0B466846052101F098FCAB
:104530002B4606460A4920460B2211F0BEFE2B46AA
:1045400032466946204611F0B8FE06492B461B222A
:10455000204611F0B2FE02B070BD00BF2A930100E8
:10456000D78C0100BB8C0100084A10B50123084C10
:1045700013600021A04204D801B11360054B1860FC
:1045800010BD40085B000121F4E700BF900100204E
:1045900040420F008C010020014B01221A7070472D
:1045A000BC4B002008B5034811F0F1FF024B01227B
:1045B0001A7008BD687E0100BD4B00200148FFF75E
:1045C000A9BF00BF687E010010B508460C4611F077
:1045D00082FD054821460F22FFF720FF2046BDE857
:1045E000104011F0A7BD00BF687E0100054B1B788D
:1045F0001BB141F2883012F0E8BFA420002110F076
:1046000095BD00BFBD4B00202DE9F84FDFF890901D
:10461000DFF890B007460E460424CA4699F80030E9
:1046200033B94FF0FF324FF0FF33584610F09CF98A
:1046300032463946002000F0F7F99AF800308046FB
:1046400013B9584610F008FA144DB8F1000F18D0FD
:1046500001232B709AF8003033B93046BDE8F88F4B
:104660005CB92C704FF0FF34002000F05DFA002898
:10467000F3D02B78002BF3D1EFE7013CFFF7B6FF27
:10468000F2E72B7813B1013C04D12C702B78002B6E
:10469000C4D1E2E7FFF7AAFFF8E700BFBC4B002058
:1046A000BD4B0020CC97012010B5044C2046FFF7ED
:1046B000CBF8204601F0CEFB002010BDC146000023
:1046C0002DE9F341DFF86080164E8DF807000446AF
:1046D00003254FF0FF334FF0FF32404610F044F90E
:1046E00001220DF10701002000F0EAF907464046DB
:1046F00010F0B2F92FB101233370204602B0BDE8AB
:10470000F0813378002BF8D0013D08D012F057FF2C
:104710000028DED10021422010F008FDD9E73570D5
:10472000EBE700BFBE4B0020CC970120F8B5124E3E
:10473000B3680C2404FB00340123054663724FF078
:104740002003EFF3118183F31188BFF36F8F236888
:104750002BB160681A682260834208BF626081F3EF
:104760001188BFF36F8F03B9F8BDD3E901722946F1
:104770003046B847E3E700BF04970120154B07B563
:104780001A6882B14FF08042D2F80423D1070AD5CB
:1047900000221A601B680093009B0F4B9B68587A9D
:1047A00008B9FFF7C3FF0D4B1A6882B14FF0804282
:1047B000D2F8042392070AD500221A601B680193DD
:1047C000019B012003B05DF804EBFFF7AFBF03B01E
:1047D0005DF804FB00010040049701200401004043
:1047E000821C084B22F07F42C3F84025D3F80425F1
:1047F000904200D17047D3F80405821C22F07F421A
:10480000F2E700BF00100140044B002282B01A60A2
:104810001B680193019B02B0704700BF401101402B
:1048200008B5FFF7F1FF074B074AD3F840051368B7
:10483000C01A20F07F4003441360BDE8084010F028
:10484000D1BE00BF00100140C001002038B514489F
:104850000FF06EFE00B34368124D1B680121002467
:104860009847C5F80845FFF7CFFF0F4B4FF40032CC
:10487000C3F880214FF48033C5F804332246012168
:10488000112000F0DBF9112000F0A6F9074A0123FE
:10489000136020462B6038BD4FF0FF30FBE700BFB0
:1048A000F98C01000010014000E100E00810014017
:1048B00070B5284B284C1968D4F80425274D521A96
:1048C000B0F1FF3F08BF284622F07F4312022FD4E9
:1048D000013820EAE070A842A8BF284601334FF40F
:1048E00080361844C4F80863A84294BF0D184D19C7
:1048F000D4F80405D4F84015FFF786FF091A21F013
:104900007F4120F07F430129C4F84035C4F8446357
:1049100004D10F2012F059FEFFF776FFD4F80405FA
:104920002B1A23F07F43012B04D1FFF759FF0BE033
:104930000020D3E725F07F43C4F84035D4F80405C0
:104940002D1A023D2B02F0D44FF48033C4F8043307
:1049500070BD00BFC001002000100140FFFF7F00BC
:104960004FF02002EFF3118382F31188BFF36F8FB2
:10497000064AD2F80405064A1268801A20F07F40E1
:1049800083F31188BFF36F8F704700BF00100140A1
:10499000C00100204FF02003EFF3118283F3118850
:1049A000BFF36F8F0649074B0868D3F8043582F3CD
:1049B0001188BFF36F8F1B1A23F07F431844704791
:1049C000C00100200010014010B5114C114AA26135
:1049D0000323C4E90433104BE36122664FF4806380
:1049E0000E4A0F492362626600231022E01DA36273
:1049F0006362E3622367E3666367A26611F014FFF4
:104A00000849204611F010FF2023A37110BD00BFFC
:104A1000C4010020238D0100CF4B0020BF4B00209C
:104A20002C8D0100308D01002DE9F84F234F4FF000
:104A3000180B14460BFB00720646936A556AAB428C
:104A4000884634D8D2F820A0AAEB050909F1FF3234
:104A5000944211D84FF0180906FB09933B442246B3
:104A600058684146284411F026FF09FB06762C447D
:104A700074620120BDE8F88F13449C421BD800FBF0
:104A80000BBBBB444A46DBF804002C44284411F01D
:104A900012FFB4EB0A0406D0DBF80400224608EB50
:104AA000090111F008FF182000FB0676E0E7013B42
:104AB0005B1BA342CED20020DCE700BFC401002074
:104AC000F8B5184C182300FB033503FB00402544C0
:104AD000C46A012C0F4616460FD0022C1AD0F4B926
:104AE000284611F038FE864205D832463946284617
:104AF00011F03FFE34462046F8BD284611F02BFE4B
:104B00008642344628BF044622463946284611F0DC
:104B100030FEF0E72846BDE8F84011F046BE00241C
:104B2000E9E700BFC4010020034B182202FB003359
:104B30009A6A586A801A7047C4010020094A0A49D3
:104B40009368096819670949D8664B6843F0805330
:104B50004B60002383F31188BFF36F8F9368186F46
:104B6000704700BFDC4A0020248B010000ED00E00C
:104B70000F498A684FF030001044EFF3098C80E849
:104B8000F01F202080F31188BFF36F8F094F4FF083
:104B900000664A6A8A603E60D06E0023D36680F366
:104BA000118802F1300090E8F01F8CF309887047FB
:104BB000DC4A002004ED00E01EF0040F0CBFEFF310
:104BC0000880EFF30980816911F8021C0229FFD0E7
:104BD00001B511F01EFE01BD43B2002B08DB01221E
:104BE00000F01F0002FA00F05B09024A42F82300BD
:104BF000704700BF00E100E043B2002B0DDB012253
:104C00005B0900F01F0002FA00F02033034A42F86B
:104C10002300BFF34F8FBFF36F8F704700E100E0B9
:104C2000054B420900F01F0053F82220012303FA2C
:104C300000F01040704700BF00E100E043B2002BDD
:104C4000A8BF03F1604301F10101B8BF064B4FEA71
:104C50004111ACBF03F5614300F00F00C9B2B4BF0E
:104C6000195483F80013704714ED00E008B572B6CC
:104C7000044B186A18B100221A6212F0D2F962B617
:104C800008BD00BFDC4A0020C0E918120A44203ADF
:104C900022F0070208491360009B5360019B936058
:104CA000029BD3604FF08073D36121F00101002398
:104CB00091610265C3667047B3590100F8B50646B5
:104CC0000C4617461D4600F00DFB094B3C4424F0F2
:104CD00007049E60284684F30988002163B681F3A7
:104CE0001188BFF36F8F0022002310F062FE00BF17
:104CF000DC4A0020014910220A60704710ED00E0F4
:104D000072B6404080F31188BFF36F8FBFF34F8FAF
:104D100030BF62B6BFF36F8F704700BF73B50646F2
:104D20000C4601B3134B144D1448ED1AED08AD01B8
:104D300045F00105ADF80050D1E90123096811F0F3
:104D400038F9ADF80050D4E90423E1680C4811F0BB
:104D500030F9E1690B482A4611F0FEF8A1690A48CA
:104D60002A4611F0F9F82146304602B0BDE87040FD
:104D70000FF01CBCE47C0100DC7D0100378D0100DC
:104D8000668D0100958D0100A48D010030BFFFF7F5
:104D9000FDBF00BF0E4A08B50E4B22F07F029A609D
:104DA000BFF34F8FBFF36F8FD3F8882022F47002C8
:104DB000C3F88820EFF3148323F0040383F31488EB
:104DC0000FF070FC0FF078FC00F05AFA0FF0B2FC14
:104DD0000000000000ED00E001B572B60B4A106A59
:104DE00000281EBF0021116212F01BF962B6EFF31A
:104DF0000580A0F110004FEAC0000549014409C92F
:104E00009847BDE80140034908470000DC4A0020FC
:104E1000987A01006552000011F021FE202080F3F5
:104E2000118808484FF40061401880F30988EFF3B7
:104E300014800221084380F31488BFF36F8FFFF7BB
:104E4000A9FF000008600020EFF30880EFF309815C
:104E5000724601B500F032F901BD00BF70B5234BB9
:104E6000234C244D2448E41AE408A40144F001062C
:104E7000314611F064F8AA6A930103D51F48314600
:104E800011F05DF8AB6ADD0104D51D4844F0010165
:104E900011F055F8174DAA6A100304D5194844F0CB
:104EA000010111F04CF8AB6A590304D5164844F0DF
:104EB000010111F044F80F4DAA6A920304D513487A
:104EC00044F0010111F03BF8AB6ADB0304D5104854
:104ED00044F0010111F033F8064A936A6FEA034384
:104EE0006FEA13439362002070BD00BFE47C0100B1
:104EF000DC7D010000ED00E0D28D0100EA8D0100B3
:104F0000FD8D0100178E0100358E01005A8E0100C3
:104F1000748E01002DE9F041274B284C284DE41AEE
:104F2000E408A40144F0010807460E46254841461E
:104F300011F005F8AA6AD10603D52348414610F0BE
:104F4000FEFFAB6A1A0704D5204844F0010110F0B7
:104F5000F6FF1B4DAB6A9B0712D544F001081C48B5
:104F6000414610F0ECFF696BAB6A180608D519488A
:104F7000424610F0F1FF1FB1AB6A23F08003AB6231
:104F80000F4DAA6AD20704D5134844F0010110F06E
:104F9000D6FFAB6A9B0604D5104844F0010110F01F
:104FA000CEFF074B9A6A9A6A002042F0FF029A628B
:104FB0003070BDE8F08100BFE47C0100DC7D0100C1
:104FC00000ED00E09F8E0100B58E0100E88E01002B
:104FD000FB8E0100138F0100298F0100488F010013
:104FE0002DE9F0412A4B2B4C2B4DE41AE408A40187
:104FF00044F0010807460E462848414610F09FFF3E
:10500000AA6AD10403D52648414610F098FFAB6A3E
:105010001A0504D5234844F0010110F090FF1E4DFD
:10502000AB6A9B0512D544F001081F48414610F0B9
:1050300086FFA96BAB6A180408D51C48424610F0DD
:105040008BFF1FB1AB6A23F40043AB62124DAB6A16
:10505000590504D5164844F0010110F070FFAB6A01
:10506000DA050DD5134844F0010110F068FF0A4A33
:10507000936A002043F47F4393623070BDE8F0816F
:10508000AB6A9B04F3D50C4844F00101EDE700BF87
:10509000E47C0100DC7D010000ED00E0778F010081
:1050A0008D8F0100E88E01009E8F0100B78F0100F7
:1050B000CC8F0100E78F0100488F01002DE9F041FE
:1050C000564B5E688AB00F46C6F30804002585F388
:1050D0001188BFF36F8F02F07F43B3F17F4F0DD183
:1050E00002F00C03082B0BD14D494E4B4E48C91A08
:1050F000C908890141F0010110F021FF2F4603E0AA
:10510000120701D40746012500238DF80730E31E5E
:10511000092B6AD8DFE803F005585C3C69696969C6
:105120006960404B3E4E4148F61AF608B60146F01B
:105130000106314610F003FF384BDC6A4FF00008DF
:1051400014F002048DF8078005D03948314610F07C
:10515000F6FE00241FE0DB6A5B001CD535483146B3
:1051600010F0EDFE344B1B782BB10DF1070101203F
:10517000FFF7D0FE0EE0314B1B782BB10DF107018C
:105180000120FFF72DFF05E02D4B1B889BB213B1CB
:10519000FFF764FE04469DF8073093B92022394694
:1051A00002A811F088FB099B9DB3C3F3080222B942
:1051B0006FEA53236FEA4323099302A92046FFF7BE
:1051C000ADFD0AB0BDE8F0810DF107010020CFE789
:1051D0000DF107010020D4E71149124B1948C91AF3
:1051E000C908890141F00101B1E70E4A0C4B16488C
:1051F00016499B1ADB0816F4F87F4FEA831318BF91
:10520000014643F001031248A4F1100210F0B8FE69
:105210009FE723F4FF7323F00103CDE700ED00E0E7
:10522000DC7D0100E47C0100FF8F01002A90010079
:10523000419001006290010028ED00E029ED00E0BE
:105240002AED00E081900100CC900100B7900100B0
:10525000E5900100024A536943F01003536170471F
:1052600000ED00E0044B9968586A884203D0034976
:105270004FF080520A607047DC4A002004ED00E0E5
:10528000044800232021C2180133302B82F8001378
:10529000F9D1704700E100E038B504464FF0200333
:1052A000EFF3118583F31188BFF36F8F0FF0C8FD03
:1052B0000A4B9B68A3420BD1094B5A68C2F3080200
:1052C00012B92846FFF73AFC5A6842F080525A60F9
:1052D0002846BDE8384012F072B800BFDC4A002012
:1052E00000ED00E01FB5084B0193084B0293084BFB
:1052F000039301AB0093074A074B0121684600F076
:10530000AFF805B05DF804FB0000002000000000CD
:1053100000000B060000002000000420DFF8BCC0E5
:10532000F8B506460F4610460021B9421BDA56F87A
:1053300021E0DEF80440002C46D0ABB1651E2C42C3
:1053400005D11F2C03D9DEF8002015420CD01F4ACE
:105350001F4B2048D21AD208920142F0010210F0ED
:10536000FBFD6FF01500F8BD202CC5B2DEF8002063
:10537000DEF8080016D9B4F1004F15D8013CB4FA94
:1053800084F4C4F11F046400072D44EA00040DD91D
:105390000E4A0F4B1048D21AD208920142F0010275
:1053A0002946DCE70824EFE73E24EDE722F01F0260
:1053B0002A4342F0100244F00104CCF80850681C63
:1053C000CCF80C20CCF810400131AEE7CC7D0100C8
:1053D000E47C0100FC9001001F91010090ED00E0D1
:1053E000034B05225A60BFF34F8FBFF36F8F704797
:1053F00090ED00E0BFF35F8F014B00225A607047D1
:1054000090ED00E013490868082810B51ED8FFF792
:10541000F1FF114C49680022904201F10C0105D1C5
:105420000E4B1870FFF7DCFF002010BDA26051F892
:105430000C3C23F01F03134343F01003E36051F8C7
:10544000043C43F0010323610132E5E74FF0FF30F4
:10545000EBE700BF9C7E010090ED00E0CF4F002005
:1054600010B5034C01232278FFF758FF207010BDC0
:10547000CF4F00202DE9F04FA1B01E46002303902E
:1054800089460293134613F8010B069358B1252859
:1054900000F081804946039B9847013040F04A84E0
:1054A0004FF0FF330293029821B0BDE8F08F2B2D0F
:1054B00065D05CD8202D65D0232D66D0002DF2D08C
:1054C000CDF81880DDF81880A44818F8015B29464B
:1054D00011F0C7F90028EAD12A2D63D156F8043B10
:1054E0000793002BBFBF5B42079301230D93069BDD
:1054F00098F8005003F102082E2D78D198F800306A
:105500002A2B71D156F8044B08F1010818F8015BF9
:10551000934829462F4611F0A4F900286AD0434643
:10552000682F13F8015B069307D1682D05D108F1A8
:10553000020398F8015006934827782D08D8572D74
:105540005CD8252D00F0F28300F2A280002DAAD0B5
:10555000039B4946252098470130A1D0039B49462B
:105560002846984701309BD0029B0233E4E32D2D5F
:105570000ED0302D089B08BF01230893A0E701231C
:1055800009939DE701230C939AE74FF0010A97E7EF
:1055900001230D9394E7002308930C9309930D9333
:1055A0009A468FE7A5F13003092B0790A4D80A2269
:1055B000DDF8188018F8015BA5F13003092B9BD8A2
:1055C000079B02FB0355A5F13003CDE90683EFE706
:1055D00001FB0434303C9046424612F8013BA3F1F3
:1055E00030000928F4D991E700240A21F4E74FF0AC
:1055F000FF348DE7CDF8188007469EE7A5F15803E4
:10560000202BA5D801A252F823F000BF915C000026
:1056100051550000515500005155000051550000F2
:1056200051550000515500005155000051550000E2
:105630005155000051550000655700003B580000CF
:105640009D5600009D5600009D56000051550000DB
:105650003B580000515500005155000051550000C5
:10566000515500001D5C0000915C0000475C00008B
:105670005155000051550000695C00005155000073
:10568000915C00005155000051550000915C0000F4
:10569000A5F14503DBB2022B3FF65AAF073626F0E1
:1056A00007031946F1E80223D80240EA5250D60215
:1056B00020F0004004960590DDE90467002A01917E
:1056C000C3F30A5173F10003CDE9146780F2E5805A
:1056D0002D238DF864300DF1650740F2FF73994278
:1056E00040F0F680DDE904120A43A5F1410507F117
:1056F000030340F0E280192D00F2D98049223A706C
:105700004E227A704622002419AEBA70FC709B1BA0
:10571000A246A346099A002A40F07D820C9A002AEC
:1057200040F079829DF86480A8F12D02D2F1000842
:1057300048EB02080BEB0A0633441E1920AB434426
:1057400013F81C3C303B092B00F2FE82089B002B17
:1057500000F0FD82079B19AF9B1B14E045910100EF
:105760004B91010032464FF0000852F8043B019281
:105770008DF864300126444619AF04EB0803002479
:105780009B1BA246A34623EAE3739A190892079A41
:105790009919551A0D9A12B9002D00F3ED8207EBF5
:1057A0000802BA4240F0EA82013B80F0F582A6EBA3
:1057B0000806BBF1000F10D0387807EB0608A0F1FF
:1057C0003003092BA8EB070640F2F182D846B8F166
:1057D000010880F0F582A6EB0B06BAF1000F16D097
:1057E00007EB060817F801BB039B49465846984744
:1057F00001303FF455AEBBF12E0FA8EB0706F1D1F7
:10580000D046B8F1000F00F3E482A6EB0A0694B18B
:10581000387807EB0608A0F13003092BA8EB070640
:1058200040F2E2822E2800F0DF82A046B8F1000F9D
:1058300000F3E382361B3E44F2E23568331D002D4F
:1058400001931CDA2D238DF8643069420DF1650651
:1058500030460A2211F07DF8099B064419A8361A31
:10586000002B40F06C820C9B002B40F068824FEACA
:10587000D578002C80DA0024A246A34666E7099B6F
:1058800023B12B238DF864302946DFE70C9B0BB145
:105890002023F7E7294619AEDAE7099B0BB12B2342
:1058A00017E70C9B0BB1202313E719AF15E769220B
:1058B0003A706E227A70662225E7192D99BF4E2222
:1058C00041216E22612194BF3A703A7079701AE7D3
:1058D000049B05980B430E93CB1703430F93DDE90D
:1058E0000E23462D08BF6625134300F007810029CB
:1058F00000F09F80159B43F00043A1F2FE38159302
:10590000002618F1020FC0F2A880B8F1000F00F3D2
:10591000D48014A808F1010811F03FF8B8F1040F81
:10592000F7D1002C05F0DF03B8BF0624472B40F069
:10593000EE80F11C02DBB44280F2E380023DEDB266
:10594000002C00F0EA80013CBAF1000F40F0E58045
:10595000002CD4BF4FF000084FF00108662D40F036
:10596000DE8014EB060B4FF0660500F1DB80BBF127
:10597000100FA8BF4FF0100B1023139300224FF00D
:105980000063CDE91623BBF1010B80F0CE80149BA0
:10599000169A17999B18159A41EB0202CDE9143219
:1059A00002F07043109300231193DDE91023134399
:1059B00006D014A811F003F814A810F0EEFF013679
:1059C000662D40F0CF80002E40F3B680139B002B55
:1059D00007DD13A914A811F01BF8013E07F8010B0D
:1059E000F4D1B3463B460026BAF1000F01D1002C9A
:1059F00015DD2E2203F8012B002E00F0AE80002CC6
:105A000040F3AD80C6F1000AA245A8BFA246A4EBB0
:105A10000A04002C03DD139A002A00F39480B8F1E5
:105A2000000F40F0B480002219AE1A709B1B71E683
:105A30000139049BDB180493059B5B410593DDE969
:105A40000423002A73F10003F2DADDE90423CDE92F
:105A500014234FE714A810F0A0FFDDE9142C002355
:105A6000CDF828C00B93DDE90A01002908BFB0F189
:105A7000333F08F10108EDD20520A2FB002300FB13
:105A80000C33CDE91423013E4FF0000E00214FF0FE
:105A9000000C6FF0004B8C4508BF9B4506D2BEF151
:105AA000000F3FF42EAFCDE914232AE792185B4193
:105AB00008F1FF384FF0010EE8E714A810F07FFF5F
:105AC000DDE9141008F1FF3801364FF0000E002315
:105AD0004FF0000C6FF0004B9C4508BF834506D289
