:10000000A8480020353B000085300100653B00001A
:10001000653B0000653B0000653B00000000000000
:100020000000000000000000000000004539000052
:10003000653B000000000000FD3800005F3001005B
:10004000F53A000065DC0000F53A0000F53A0000E2
:10005000F53A0000F53A0000F53A0000F53A0000E4
:10006000F53A0000F53A0000F53A0000F53A0000D4
:10007000F53A0000F53A0000F53A0000F53A0000C4
:10008000F53A0000F53A0000F53A0000F53A0000B4
:10009000F53A0000F53A0000F53A0000F53A0000A4
:1000A000F53A0000F53A0000F53A0000F53A000094
:1000B000F53A0000F53A0000F53A0000F53A000084
:1000C000F53A0000F53A0000F53A0000F53A000074
:0C00D000F53A0000F53A0000F53A000097
:0400DC00FFFFFFFF24
:1000E00053B94AB9002908BF00281CBF4FF0FF319F
:1000F0004FF0FF3000F06CB9ADF1080C6DE904CEA3
:1001000000F006F8DDF804E0DDE9022304B07047F2
:100110002DE9F047089E0D4604468E46002B40F020
:1001200082808A42174646D9B2FA82F24AB1C2F1B7
:10013000200105FA02F320FA01F1974041EA030E8B
:1001400094404FEA1748230CBEFBF8FCB9B208FBF9
:100150001CEE43EA0E430CFB01F098420AD9FB184F
:100160000CF1FF3580F01681984240F21381ACF11A
:10017000020C3B441B1AA4B2B3FBF8F008FB10338B
:1001800044EA034400FB01F1A14209D93C1900F102
:10019000FF3380F00181A14240F2FE8002383C44EE
:1001A000641A40EA0C4000211EB1D4400023C6E985
:1001B0000043BDE8F08702B9FFDEB2FA82F2002AFE
:1001C0004FD1CB1B4FEA174E1FFA87F80121B3FB23
:1001D000FEFC250C0EFB1C3345EA034508FB0CF323
:1001E000AB4207D97D190CF1FF3002D2AB4200F2CD
:1001F000E7808446ED1AA3B2B5FBFEF00EFB105566
:1002000043EA054408FB00F8A04507D93C1900F172
:10021000FF3302D2A04500F2D7801846A4EB0804B1
:1002200040EA0C40C0E78B4208D9002E00F0AF80B6
:100230000021C6E900050846BDE8F087B3FA83F15E
:1002400000294BD1AB4202D3824200F2B780841A1C
:1002500065EB030301209E46002EAAD0C6E9004E9E
:10026000A7E7C2F1200C01FA02F3974020FA0CF044
:100270004FEA174E21FA0CFC1843BCFBFEF1050CAB
:100280000EFB11CC1FFA87F845EA0C4501FB08F379
:10029000AB4204FA02F409D97D1901F1FF3C80F068
:1002A0008B80AB4240F2888002393D44EB1A85B224
:1002B000B3FBFEF00EFB103345EA034500FB08F3E9
:1002C000AB4207D97D1900F1FF3C71D2AB426FD927
:1002D00002383D44EB1A40EA014178E7C1F1200CB5
:1002E0008B4022FA0CF71F4320FA0CF405FA01F3B5
:1002F0004FEA174E25FA0CF51C43230CB5FBFEF90B
:100300001FFA87F80EFB195543EA054509FB08FA61
:10031000AA4502FA01F200FA01F308D97D1909F1A0
:10032000FF3047D2AA4545D9A9F102093D44A5EBC2
:100330000A05A4B2B5FBFEF00EFB105544EA0544D5
:1003400000FB08F8A04507D93C1900F1FF352DD274
:10035000A0452BD902383C4440EA0940A4EB0804EC
:10036000A0FB02894C45C6464D4619D316D05EB156
:10037000B3EB0E0264EB050404FA0CFCCA404CEA31
:100380000202CC40C6E900240021BDE8F0873146D6
:1003900030460EE7AC46EDE6184601E74345E6D2A7
:1003A000B8EB020E69EB07050138E0E72846D3E712
:1003B00060468FE78146BAE7614677E708464BE734
:1003C000ACF1020C3D4415E702383C4426E700BF7F
:1003D000704700BF000000002DE9F04F8FB00223EE
:1003E000A34C0C93002800F0E88094F8CC6016F041
:1003F000010637D194F87C8094F8290094F82C20D9
:1004000027272D2307FB084800F0030017FB0237BE
:10041000FF2384F82A300CF0EDFD94F8DA00810710
:1004200008F17D0804EB070921D4E05D3146C0F3F3
:10043000801005F0CDF906220146054609F10200BB
:1004400012F04DFE0622294608F1020012F047FE86
:10045000E35D5A0622D413F00E0F2BD1636A002BF2
:1004600000F012810C2630460FB0BDE8F08FC0F3CB
:100470008000324604F1DB010CF0A8FFFF2884F86D
:100480002A0040F0D7817A4849460CF0F9FD7848B7
:1004900041460CF0F5FDE35D5A06DCD5062109F175
:1004A000020003F047FE002800F01882E35D13F01D
:1004B0000E0FD3D094F828300121C3F342030DA8C6
:1004C0008DF8343003F0B6FF00286FD0E25D99F864
:1004D000013098F8011002F00F02022A12D0012A0E
:1004E00000F00682C9008031002A40F0F981103303
:1004F000DB0003F54D720A4403F59A73013803FBE0
:10050000002009E01033DB0000FB03F303F5AA73BE
:100510000138642202FB003094F820305549E46130
:10052000002565F30003312284F820302260C4E9FD
:1005300005554DA3D3E90023C4E90155A0FB0101F2
:10054000FFF7CEFDB4F8D890E06005F03BF98046A7
:10055000B9F1000F07D1E55D05F00F05A5F1010523
:10056000B5FA85F56D0994F8280065F3000010F0E0
:10057000010584F8280000F061813F4DE3683F4A9F
:10058000049300200CAF019305920321CDE9075796
:10059000CDE90200069400904346022205F060F87F
:1005A000394607F0CBFF002800F08481636A002BF6
:1005B0003FF458AF08F008FB54E70D9394F8CC30A3
:1005C000DD077FF54FAF204607F0C6FF844204D019
:1005D0002B4840F2E94102F00BFF94F82830D8078D
:1005E0000DAD0ED50321244B00950122002005F00E
:1005F000A3F8294607F0A2FF002840F09F810223BC
:100600000D9303211C4B00950222002005F094F865
:10061000294607F093FF002840F07B81194807F036
:10062000D7FF002840F06981114807F0A1FF8442FC
:1006300004D0134840F20B5102F0DAFE636A0BB1AA
:1006400008F0C2FA94F8CC3000206FF3000384F86D
:10065000CC3008F0E9FD0646002800F0288100268D
:1006600030460FB0BDE8F08F8D49FD1A070000003D
:100670003811002000CA9A3B31850000D98A000059
:10068000DC4101005411002007F0D0FE8246002812
:1006900000F03D8107F0D6FE8346002800F0498136
:1006A00009F038F90546002800F040814FF6FF7345
:1006B000806FAB8505F11C030B93002800F02381AC
:1006C00005F16C0205F1680103F040FDB5F8642006
:1006D00095F840C095F83DE095F8DC0095F82211BA
:1006E0009F4B2B6622F4EF6222F0070242F48872DD
:1006F00042F00102A5F86420002262F3000C20F011
:10070000030021F0030185F840C00EF03F0E4FF0CA
:100710001B1C6EF07F0E85F8DC0085F822117F200F
:100720009049C5F85CC04FF0060CC5E9132285F866
:100730003F206A866A636A65A5F8C820A5F8CC20C0
:10074000A5F8E82085F8EA20C5F80021A5F80421DD
:10075000A5F81821A5F8202185F82B21AA6785F88E
:100760003DE085F8C100A5F8C4C0C5F81C11C5F866
:100770002CA1A5F87C2095F872E195F89AC195F81E
:100780007E0095F85211A5F8502162F3C30C62F374
:10079000041E21F0070120F01F00A5F87021A5F824
:1007A0009821A5F8A42185F89AC185F872E185F809
:1007B000521185F87E0009F041FCA5F8D60009F039
:1007C00043FCD5F8A8316849A5F8D8001940C5F808
:1007D000A81109F03FFC95F8AC1160F3020185F80F
:1007E000AC1109F03DFCC4E934AB0B9B636295F896
:1007F000AC1195F820C0ED610301002203F07003F5
:1008000021F078010B4362F3000CC5E96E22C5E9C3
:100810006C22C5E90522C5F8C02185F8AC3185F800
:1008200020C00DF0E3FC00283FF444AE08F0CCF902
:10083000032618E630460CF0A3FC24E64B48E26899
:100840004B4BDFF840E10694A9FB0001912707FB21
:10085000091102F247171F600492464A09934FF6A6
:10086000FF7C05920CAF3CA3D3E90023CDE907E759
:100870000295CDF80CC0FFF733FC4346CDE900509C
:1008800002222846032104F095FE394607F056FE61
:1008900000287FF48BAE94F8CC3043F0010384F849
:1008A000CC3008F0C1FC00287FF4D9AE01200CF058
:1008B0007FFBD8E5304905914AF2D832CDE9075798
:1008C00000920225CDE90300CDE9010006944346DC
:1008D000012203210C9504F0C3FED6E71226C2E5DF
:1008E000062A3FF404AE4FF4DA734FF41B7205E6A8
:1008F0004FF4F2734FF47F7200E620484FF4A16189
:1009000002F076FD90E605F17000A867D8E60726AC
:10091000A9E51B4807F020FE84423FF4A3AD174829
:1009200040F2025102F064FD0C269CE5584607F0A7
:100930008FFD504607F080FD072694E5104807F02C
:100940000BFE84423FF48EAD0C4840F2F34102F0BE
:100950004FFD0C2687E500BF8D49FD1A07000000FA
:1009600048014801FF4101000000FFF6002AE7842A
:100970001C120020D98A0000798A0000DC410100A5
:100980003811002031850000F8B5194E9DF8184047
:1009900096F8485015F0010721D196F832C0DFF8DB
:1009A00054E0A6F84210E40004F018040CF0670CC0
:1009B00044EAC01463F34205A2FB0E0144EA0C04AE
:1009C000912303FB021186F8485007A3D3E90023C3
:1009D00086F83240FFF784FB70643846F8BD0C2778
:1009E0003846F8BDAFF300808D49FD1A07000000BE
:1009F00040120020002AE784F8B59DF81840104EF8
:100A00000546E400807DEA8404F01804A3FB066731
:100A100000F06700912244EAC111014302FB037711
:100A2000A97505A3D3E9002330463946FFF758FBE3
:100A3000A862F8BDAFF300808D49FD1A07000000E1
:100A4000002AE784000000002DE9F04190F83230E0
:100A5000044600F1350190F8480003F0F903C0F3B3
:100A600040008EB060F3861384F8323002230B937B
:100A700004F0AEFEB4F8426094F820304848E461D7
:100A80000025A6FB000165F30003912202FB06117D
:100A9000C4E9055584F820303FA3D3E90023FFF7CC
:100AA0001FFB636C656006460933A6F13102934271
:100AB0004FF03101A56028BF6564216034BFE36059
:100AC000E26004F07FFE676A0546002F43D006947B
:100AD000B4F842703248E268DFF8D0C00492A7FB55
:100AE0000001912303FB07112E4B05934FF00008E3
:100AF0000BAF29A3D3E90023CDF81CC00897CDF88C
:100B00000C80FFF7EDFA104619464FF47A72002375
:100B1000FFF7E6FA2B46029004220321CDF800806D
:100B20004046019604F09CFD394607F007FD054656
:100B300068B994F8483043F0010384F8483008F06D
:100B400031FA044600B328460EB0BDE8F0810C200F
:100B50000EB0BDE8F081E1680C9731310DAB0CAA05
:100B600003200D970CF04EF80D990029AFD00E48D8
:100B700009A3D3E90023A1FB0001FFF7B1FA0C9D03
:100B800020F07F400544A2E702200CF011FA204635
:100B90000EB0BDE8F08100BF8D49FD1A07000000CE
:100BA000002AE784F98F000000CA9A3B31850000D3
:100BB0002DE9F04F0446808D4FF6FF7398428BB0BD
:100BC0000E46154600F0898094F8E93094F8E80064
:100BD00083420ED0C01A00F0030002281BD094F804
:100BE000292194F828319A4230D100200BB0BDE879
:100BF000F08F94F8527117F00108F0D194F80511B4
:100C000094F804218A4200F04B83981E012284F854
:100C1000E90084F8EA2094F8983194F899219A42EE
:100C200006D094F89A2102F00601042900F080838E
:100C300094F8EA707B1E052B00F22C83DFE813F09A
:100C40006400C3026A022A03ED02AB012C4803F0E0
:100C500027FA58B394F8283184F82931037902220D
:100C600043F0030342710371C271D4F8B03194F8B8
:100C70002A2102722BB394F85221910721D494F8BF
:100C8000AB21D2071DD4D4F8BC21934204BF1A680B
:100C9000C4F8BC21D4F8B421B2B91A680260186053
:100CA0000368C4E96D000BB9C4F8C001B4F8CC0006
:100CB00000289AD1B4F8C630012B14D9A4F8CC304E
:100CC00093E7D4F8B421A2B1D4F8B8311A6802601D
:100CD0001860C4F8B8010368E5E70A484FF44471A6
:100CE00002F086FB70E70133A4F8CC300BB0BDE80E
:100CF000F08F0360C4E96C00C4F8B801D3E700BF0B
:100D0000383000205C420100DFF8FC83D8F8003066
:100D1000002B00F08784E78E628E94F8063117442A
:100D20002F4413F00303BFB240F05283B4F8EC90A9
:100D3000A7EB09021FFA82FA12043FF550AF94F8AC
:100D4000701194F8712194F8040184F805018A4225
:100D500094F8E80084F8E90009D094F8722102F0D0
:100D60000702052A04BF84F87111A4F8CC30D8F822
:100D700000309C4204BF0023C8F80030D4F8008142
:100D8000B8F1000F00F06785D8F80000002800F0E7
:100D90006285B4F80811E38D4268B4F80AC1C4F85A
:100DA0000021994200F06D86B4F80CE1A38DA8F8FB
:100DB00006300A220023A8F82210A8F824C0A8F8B8
:100DC00026E088F8042088F82030414607F046FBEA
:100DD00007F04EFB2368002B09DAD4E9011223F057
:100DE00000438A422CBFB61876182360F61AE38DAA
:100DF000B4F8088113FB0AF39BB2B3FBF8F118FBBC
:100E000001F292B293421FFA81FB80F01285D31A4D
:100E1000B54840F2E24202FB03F3A3FB0001B0A39A
:100E2000D3E90023FFF75CF920F07F400644638E8E
:100E3000A9EB07071D4494F93D305F442F4440F26D
:100E4000E249002B678609FB08F5C0F25E86D4F8FC
:100E50001001A549A2A3D3E90023A0FB0101FFF7DC
:100E60003FF920F07F4909F10109AA46B4F80C21A5
:100E7000B4F80A119D4BA4F82E8042F2107000FBCA
:100E800002529B4821862B442844B3FBF5F3013AD8
:100E9000B2FBF5F2B0FBF5F5A4F8C62098B28A1DB6
:100EA0009042A4F8D200A4F8CA5002DD401A0638D5
:100EB00080B294F80631A4F8CE005F0744BF002347
:100EC000A4F8C830022101200FF004FD0022022105
:100ED0008046012003F088F986494FF4E4722046E9
:100EE00003F014F9451DEDB2834B00942A4601210D
:100EF000002004F021FC30F0020304D07F4840F6CB
:100F0000681102F075FA784BAAFB03AB504674A344
:100F1000D3E900235946FFF7E3F8794A20F07F47E9
:100F2000A7FB02230721BAEB020001FB07336BEB9F
:100F300003014FF47A720023FFF7D2F8DFF8CCE117
:100F40007049E268DFF8C8C1034694F93D00049295
:100F500011EA200138BF7146002002930591334603
:100F6000019708940694CDF800902A46CDF81CC04D
:100F70000390012104F074FB30F0020304D05F48B9
:100F800040F6821102F034FAB8F1000F40F0958576
:100F90006FF047002AE6628EE38E94F8EC1013445B
:100FA0001D44C807ADB20A4600F1FB82B4F8EE302A
:100FB000ED1A28043FF513AE94F8643094F8658078
:100FC00094F8E800B4F8627084F8E90011F01C0F9E
:100FD00003F0070908F0070840F07885B4F860606E
:100FE00011F0E00F08D094F865004B0963F302009C
:100FF00084F865004FF4A47794F8AC3194F8641049
:10100000D4F80051C3F3C00363F3C30184F8641040
:10101000002D00F070852868002800F06C8543687A
:10102000C4F8003112F0020F94F8642040F04387B6
:1010300094F8653002F00702914503F0070300F0D1
:101040006687A18DE9804FF00E0C002185F82010F5
:1010500085F8212085F8223085F804C0294607F05C
:10106000FDF9D4F80051002D00F0498628680028C9
:1010700000F04586B4F860304268C4F80021B342FD
:101080000AD3B3F5A47F07D8B4F86230BB4203D3C8
:10109000B3F5A47F40F24F87A4F86060A4F86270B3
:1010A00095F82030A28DEA8043F003030221092243
:1010B000297185F8203085F82120B4F85E30B4F825
:1010C0005C20AB8415232A8585F823302946EF84DC
:1010D0006E8507F0C3F907F0CBF980E5AFF3008028
:1010E0008D49FD1A0700000000CA9A3B7FC3C90161
:1010F000FF596202A8120020B99500005C4201006D
:101100008D49FD1AA9C30000282F0020F9C4000052
:101110008995000094F8EC3013F003057FF45FAD7F
:10112000A94802F0BDFF064600283FF458AD94F9E7
:101130003D30002B80F23D8594F8ED50002D00F0FD
:101140002383037994F8DC2043F003030371D00771
:1011500040F1BD86D4F81C31590740F1B886112200
:1011600003237572F27133727771D4F8B0310022B3
:1011700084F8ED20002B00F0518394F8522192075F
:1011800000F14C8394F8AB21D70700F14783D4F8E2
:10119000BC21934204BF1A68C4F8BC21D4F8B4211E
:1011A000002A01F02180D4F8B8311A6832601E603C
:1011B000C4F8B8613368002B00F0858694F8E830F5
:1011C00084F8E9300BE5E38E618E94F8EC200B4453
:1011D0001D44D607ADB200F19981B4F8F230ED1A92
:1011E0002D043FF5FCAC94F8E83084F8E93004F1C4
:1011F0003805052204F1ED01284611F070FF28465C
:10120000052103F017F994F83D30012260F305033E
:1012100084F83D3084F8C421E1E46B4802F040FFDB
:1012200000283FF4DCAC94F8E83084F8E93001237E
:1012300002794371D4F8B03142F0030212210271F5
:10124000C171002B00F0958294F85221960700F1AD
:10125000908294F8AB21D50700F18B82D4F8BC21A1
:10126000934204BF1A68C4F8BC21D4F8B421002A00
:1012700000F0A887D4F8B8311A6802601860C4F882
:10128000B8010368002B00F04285B4F8CA30A4F816
:10129000CC30A4E44D4840F2963102F0A9F89EE427
:1012A00094F8192194F818C1624557D194F8212176
:1012B00094F820C1624500F0D782A2EB0C02D70758
:1012C0007FF58DAC94F82231D80740F1D2869F0784
:1012D00040F1C48607F0F0F8014620B394F82031BD
:1012E00084F8213190F82030A28DC28043F00303AE
:1012F00081F82030022006220C23087181F8212079
:1013000081F8233094F82301B4F82421B4F826316D
:10131000A1F8273081F82400A1F82520086807F0FB
:101320009DF807F0A5F894F8E80094F8E93051E446
:1013300002F00701062901F2AA8001A050F821F06D
:10134000C9160000310C0000310C0000310C000007
:101350002D1600002D160000310C0000A2EB0C022F
:10136000D0077FF53CAC94F8DC1011F0010700F0D9
:10137000678407F0A1F807460028D4D094F8183104
:1013800084F8193190F82030A28DC28043F0030315
:1013900009220220414687F82030387187F8212041
:1013A00087F8232007F12400082211F0C3FED4F8A7
:1013B0001C3187F82430C3F307221B0C87F8252043
:1013C00087F826303946A9E7383000205C42010012
:1013D000012007F053F8804600283FF400ACB648DF
:1013E00002F05EFE054600283FF4F9AB07F064F812
:1013F000D8F80030D4F800215A6094F80631C4F8C7
:10140000008103F00303012B00F0AA85022B00F0FA
:101410006F8540F69301A94801F0EAFF0021238E71
:1014200094F806C12A793B44063398B26FF3010C55
:101430000C23A4F8EC0084F806C142F003026B719F
:10144000D4F810319E4F2A710022EA71A7FB0323C2
:1014500094F8147122682F72B4F80871A5F80B7013
:10146000B4F80A71A5F80D70C3F38F23B4F80C71AA
:10147000A5F80F70002AA5F81100A5F80930C4F8E6
:10148000F4600ADAD4E9010322F0004283422CBF5F
:10149000F31833189A1AC4F8F4208A4B05F109009E
:1014A0000122C4F8F000D960104602219C6002F0CD
:1014B000CFFE002840F05785D4F8B031002B00F063
:1014C0000F8394F85221900700F10A8394F8AB211E
:1014D000D10700F10583D4F8BC21934204BF1A68F8
:1014E000C4F8BC21D4F8B421002A00F08D86D4F8C9
:1014F000B8311A682A601D60C4F8B8512B68002BF7
:101500007FF46DABC4F8C051FFF769BB6A4802F0C5
:10151000C7FD064600283FF462AB238E027994F89B
:10152000EC101D44AB1DA4F8F2306FF30001012351
:1015300042F00302082084F8EC1032717071F371EC
:10154000052204F1ED01301811F0C9FDD4F8B031D5
:10155000B4F8F220A6F80D20002B59D094F85221AF
:10156000970755D494F8AB21D50751D4D4F8BC21B2
:10157000934204BF1A68C4F8BC21D4F8B421002AED
:1015800000F03A86D4F8B8311A6832601E60C4F8A8
:10159000B8613368002B7FF422ABC4F8C061FFF759
:1015A0001EBB022006F06AFF804600283FF417ABFE
:1015B000414802F075FD064600283FF410AB94F850
:1015C000EC306FF30003C3F3421242EA930212F0CD
:1015D000070784F8EC30DBB240F0218594F8E8206E
:1015E000A4F8EE709B0784F8E92000F192853B4651
:1015F000394605227271377232797372D4F8B0317C
:10160000718142F0030218213271F171002BA5D1D2
:10161000D4F8B421002AB5D13360C4E96C66C4F8AB
:10162000B861B7E7C8F80040FFF775BB02F00702E2
:10163000B4F89CC1B4F8A011B4F89E91B4F8A2819A
:10164000A4F85EC0042AA4F8621000F0938494F811
:101650009A31062262F3020384F89A31D4F80071B9
:10166000002F00F071843868002800F06D8497F82E
:1016700020304268B4F82CE0C4F8002143F00303A2
:10168000022287F820304FF0090A1523A7F806E058
:10169000A7F824C0F9843A7187F823303946A7F8AF
:1016A0002890A7F82A8087F821A006F0D7FE06F038
:1016B000DFFEFFF7BDBA00BF383000205C420100FA
:1016C0005917B7D18C770020B34802F0E9FC002805
:1016D0003FF4AEAA94F89A31B4F89E71B4F8A221FE
:1016E000A4F8D6700121A4F8D82061F302030922DE
:1016F00084F89A3142710279D4F8B031878142F08E
:1017000003024FF0140CC172C173002702711B2138
:10171000482280F807C04772017282728273002BE0
:1017200000F0DB8394F85221920700F1D68394F8FD
:10173000AB21D70700F1D183D4F8BC21934204BF79
:101740001A68C4F8BC21D4F8B421002A00F06F85CF
:10175000D4F8B8311A6802601860C4F8B801036898
:10176000002B00F0D284B4F8CA30A4F8CC30FFF7D4
:101770005FBAD4F8B421002A7FF47CAD0360C4E9D9
:101780006C00C4F8B8017DE504F17F073B462A46AA
:1017900004F1EE0104F25D100EF0D2FB3946102286
:1017A00004F1A00011F09BFC082204F1980104F15F
:1017B000B90011F094FC94F8972094F8B81094F8BC
:1017C0007E3084F88F5042F0010265F3000143F04F
:1017D0000803012084F8972084F8B81084F87E303C
:1017E00084F8905084F8915084F8925084F8935083
:1017F00084F8945084F8955084F89650C4F8B0500A
:10180000C4F8B45032797071D4F8B03142F00302A8
:1018100005213271F171002B7FF4AFACD4F8B42103
:10182000002A7FF4C0AC3360C4E96C66C4F8B861C8
:10183000C1E408FB113340F2E24258489BB202FB7C
:1018400003F3A3FB000152A3D3E90023FEF748FCF6
:10185000361AFFF7ECBA524840F6C40101F0C8FD51
:10186000D8F80000FFF795BA94F871C194F8702188
:10187000944500F06382DFF82C81D8F80020002A1C
:1018800000F06D8494427FF4AAA994F8722102F0CA
:101890000702052A00F2F0850FF2040C5CF822F032
:1018A000A919000011190000B9180000D50B00009B
:1018B000D50B0000D50B0000B8073FF590A906F046
:1018C000FBFD014600283FF42EAD90F8203094F83F
:1018D0007221032060F30202034384F87221A08D79
:1018E00081F82030022718230F7181F82130B4F8D5
:1018F0007421B4F87631C880B4F878018A84B4F8D9
:101900007A21CB840F2308854A8581F8233005E5A9
:1019100094F87371002F40F0AD8494F93D30002BA2
:10192000C0F2148594F8723194F87C01C4F81071F7
:10193000052262F30203012284F8723184F8142133
:10194000002800F08285B4F87431B3FBF0F313443F
:1019500013FB00F39BB294F8722194F80601A4F8EB
:101960000831C2F3C0039B0020F0070243F00203DA
:101970001343B4F87801B4F87A2184F806310139B8
:1019800084F80511A4F80A01A4F80C21FFF727B97F
:101990008D49FD1A070000003830002000CA9A3B2C
:1019A0005C420100282F0020DD48B4F83690B4F8DE
:1019B00032A002F075FB074600283FF4B4AC027970
:1019C00094F87211042060F3020142F0030218201F
:1019D00084F8721109EB0A033A717871B4F8740152
:1019E000B4F87611B4F8782138812B44B4F87A0130
:1019F0007981BA810F210022A7F811304FF0FF330F
:101A0000F881F9713A74FA743A757B75BB75FB7598
:101A10003B767B76BB76FB763B777B77BB7739462D
:101A2000204607F0A5FC2268B4F8CA30C8F8004088
:101A3000002AC4F89061A4F8CC300ADAD4E9011382
:101A400022F000428B422CBFF31873189B1AC4F883
:101A50009031B44B13370122C4F88C711046022127
:101A60009C6002F0F5FB00283FF45DACAE4840F608
:101A70007A3101F0BDFC94F8E80094F8E930FFF702
:101A8000A9B8238E63457FF48FA940F2E243B4F8EE
:101A90000CE1B4F8C62003FB01FB42F2107303FB18
:101AA0000EB3013BB3FBFBF39BB29A427FF47EA9DA
:101AB000032388F80430FFF788B901221046022179
:101AC00002F092FB6FF04700FFF790B8C1F382007D
:101AD00060F3020384F864304FF4A476FFF780BA11
:101AE000D4F8B421002A7FF402AD2B60C4E96C5510
:101AF000C4F8B85103E58C4840F63C6101F078FC2D
:101B0000286894F8EC20FFF78ABAE26C636C874F80
:101B100003FB1A23E3640DF00DFB804694F8DC0010
:101B2000C0F382000DF008FB08EB000305FB03F394
:101B30007F48E26C94F8141103F5742303F23F23F9
:101B4000A0FB03034FEA934A0AFB0BF06B08024425
:101B5000963B9A4209FB01FC28BF1A464FF0000E43
:101B6000C4E91232C4F844A06BA3D3E90023C4F83B
:101B700054C0C4F8E4E0A0FB0701FEF7B1FAD4F8C2
:101B8000103184466B48A0FB0330800A09FB00F04B
:101B900061A3D3E90023A0FB0701A6EB0C06FEF727
:101BA0009FFAA5EB0A0AB4F8088120F07F49FFF7F5
:101BB0005DB904F17F073B462A4604F1EE0104F2C9
:101BC0005D100EF0BDF93946102204F1A00011F0AD
:101BD00086FA082204F1980104F1B90011F07FFAA5
:101BE00094F8971094F8B82094F87E3084F88F50C9
:101BF00043F0080365F3000142F0010284F89710F6
:101C000084F87E3084F8905084F8915084F8925093
:101C100084F8935084F8945084F8955084F8965042
:101C2000C4F8B050C4F8B45084F8B820311D204630
:101C300007F042FDD4F8B031002B7FF49EAAEDE509
:101C4000374802F02DFA804600283FF46CAB94F838
:101C50001931394AC4F81C21013B092284F8193191
:101C6000427194F93D200379002AACBF08220E226C
:101C700043F00303C271082203713946104411F086
:101C800059FAD4F81C3188F80830C3F307221B0C2A
:101C900088F8092088F80A30D4F8B031002B00F019
:101CA0002A8194F85221910700F1258194F8AB2103
:101CB000D20700F12081D4F8BC21934204BF1A68F6
:101CC000C4F8BC21D4F8B421002A00F0BF82D4F8B3
:101CD000B8311A68C8F80020C3F80080C4F8B88189
:101CE000D8F80030002B00F05982B4F8CA30A4F8BC
:101CF000CC3094F8E80094F8E930FEF76BBF0A485E
:101D000040F6686101F074FB2868FFF7B3B9C4F8C6
:101D1000C001FFF7BABA00BF8D49FD1A07000000E5
:101D2000383000209C7700205C42010000CA9A3BBA
:101D300083DE1B435917B7D1FF41010094F8987116
:101D400094F89921BA4200F0208194F89A1101F098
:101D50000702062A00F2A2830FF2040C5CF822F0BC
:101D6000111E0000D50B0000D50B0000D50B0000A4
:101D70007D1D00007D1D0000D50B0000B4F89C31D6
:101D8000A4F85E3001F00703B4F8A021B4F89E91E6
:101D9000B4F8A281A4F86220042B00F061820B4603
:101DA000062262F3020384F89A31D4F80071002FFE
:101DB00000F045823868002800F0418297F8203012
:101DC0004268B4F82CC0C4F8002143F0030387F83C
:101DD00020300222092387F821303A71B4F85E10CE
:101DE000B4F86220FA84152387F82330A7F806C0D8
:101DF000B984A7F828903946A7F82A8006F02EFB68
:101E000006F036FB94F8E80094F8E930FEF7E2BEFD
:101E1000DE4802F045F9034600283FF484AA94F80E
:101E20009A21B4F89E71B4F8A211A4F8D6700120DA
:101E3000A4F8D81060F30202092184F89A2159719C
:101E40001979D4F8B0219F8141F003014FF0140CAF
:101E5000D872D873002719711B20482183F807C056
:101E60005F72187299729973002A00F0D58194F804
:101E70005211890700F1D08194F8AB11CF0700F11E
:101E8000CB81D4F8BC118A4204BF1168C4F8BC11DC
:101E9000D4F8B411002900F0E982D4F8B82111680F
:101EA00019601360C4F8B8311A68002A7FF41DAFB6
:101EB000C4F8C03119E794F8653002F0070203F066
:101EC0000703FFF7BEB8C4F8C061FFF777B90D2369
:101ED0003572F3710227FFF747B9D4F8B421002A0D
:101EE0007FF436AC0360C4E96C00C4F8B80137E491
:101EF000A749FFF794BAD4F8B421002A7FF4E7AEDB
:101F0000C8F80030C4E96C88C4F8B881EAE698459E
:101F10007FF497A803232B71294606F09FFAD4F883
:101F20000051002D00F00B822868002800F0078285
:101F30004368C4F8003103232B71294606F08EFA5A
:101F400006F096FAFEF74BBE924840F60C5101F0AF
:101F50004FFA3868B4F85EC0B4F86210FFF787BB78
:101F60008D49FFF75CBA8B4840F64D0101F040FA0D
:101F7000FFF7A2BAB4F8A421002A40F0128184F835
:101F80009931A4F8CC20FFF769BB94F8A82194F804
:101F9000A91191423EF423AE94F8AA1101F0030076
:101FA000032800F0888100287EF419AE774802F0FB
:101FB00077F8014600283FF4B6A994F8AA3194F8BE
:101FC000AC2194F8AB71012060F30103C3F38200EC
:101FD00060F30202C3F3421060F30612C7F3400736
:101FE000087984F8AA3167F3C30284F8AC21C3F3FB
:101FF000820C40F00300C3F34213162203274B72F6
:102000000871CA7181F808C04F710022204607F09C
:10201000AFF9B4F8CA30A4F8CC30FFF784B9238EF6
:102020001D44AB1DA4F8EE3006F046FAD8F8003097
:10203000D4F800215A60C4F8008106F03DFA036824
:10204000D4F800215A6094F8EC30B4F8EE10C4F8DB
:102050000001C3F382075B09FFF7CBBA4D4840F696
:102060002B3101F0C5F994F8E80094F8E930FEF757
:10207000B1BD464802F014F800283FF454A994F882
:10208000212194F82231013A84F82121027943F088
:102090000103062184F8223142F003024171D4F891
:1020A000B03102710A216FF00E020C2701724272E8
:1020B00005214FF0FF32C7718172C2720273002B8B
:1020C00000F0888094F85221910700F1838094F801
:1020D000AB21D2077ED4D4F8BC21934204BF1A6846
:1020E000C4F8BC21D4F8B421002A00F0B281D4F89D
:1020F000B8311A6802601860C4F8B8010368002B90
:102100007FF4F3ADC4F8C001EFE5C4F8C001FFF7F8
:102110002ABB06F0D1F90E23A28D88F8207088F82A
:10212000043094F86430D8F80000A8F80620C3F30F
:10213000020388F8213094F86530C3F3020388F86D
:102140002230414606F08AF906F092F994F8EC3014
:10215000B4F8EE10C3F382075B09FFF74ABA94F8AC
:10216000723103F00703052B00F2868101A252F8B9
:1021700023F000BFA919000011190000B9180000D0
:10218000DF0B0000DF0B0000DF0B00003830002009
:1021900019CC00005C42010015CC0000C4F8C081DD
:1021A000A3E594F89A01B4F8A671A4F89E2100233F
:1021B00063F3020084F89A01A4F8A431A4F8A27190
:1021C000FFF74CBA1A68026018600368C4E96D0032
:1021D000FFF758B8D4F8B421002A88D10360C4E9C5
:1021E0006C00C4F8B80189E71A6832601E60336871
:1021F000C4E96D66FEF7DFBF1A6832601E6033689F
:10220000C4E96D66FFF7C6B91A682A601D602B68BD
:10221000C4E96D55FFF773B9D4F8B41100297FF400
:102220003CAE1A60C4E96C33C4F8B8313CE61A68B5
:10223000026018600368C4E96D00FFF791BA9B481B
:1022400040F60C5101F0D4F83868B7E51A68C8F8C0
:102250000020C3F80080D8F80030C4E96D8841E55B
:10226000B4F8A421002A40F0BB8084F89971A4F846
:10227000CC209AE58E4801F013FF014600283FF478
:1022800052A8037943F003030B71112003220F239B
:10229000C8714A710B7294F873314B720022204658
:1022A00007F066F894F8703184F871310023C8F8AB
:1022B0000030FFF738B8080784F8A921C1F382027B
:1022C00040F1A58094F8AA21022161F3840284F8E8
:1022D000AA2194F8AA2157064FEA521140F18F80A3
:1022E000022161F3471284F8AA2194F8AA1194F804
:1022F00064C094F8650094F8AB21C1F382070CF038
:10230000070C00F00700C2F38002BC4508BF00279D
:102310005200B0EB511F42F001024FEA511108BFC9
:10232000002142EA4112023B42EA8702062184F878
:10233000E93084F8EC2084F8EA10FEF779BC5B48B9
:1023400040F64B6101F054F82868F1E5584801F077
:10235000A7FE014600283EF4E6AF0379182243F0B9
:10236000030303714271B4F87421B4F87631B4F800
:1023700078010A81B4F87A214B8110238881CA81BF
:10238000CB7194F87C310B74B4F87E31B4F88001D1
:10239000B4F88221A1F81130B4F88431A1F8130007
:1023A000B4F88601A1F81520B4F88821A1F81730F7
:1023B000B4F88A31A1F81D30A1F81900A1F81B204A
:1023C00020463A4606F0D4FF94F8703184F8713113
:1023D00094F8E80094F8E930C8F80070FEF7FABB0A
:1023E00000200B4660F30203A4F89E21B4F8A62156
:1023F00084F89A31A4F8A401A4F8A221D5E4C8076E
:102400000FD5012161F3471284F8AA216DE7D107A6
:1024100010D594F8AA21012161F3840284F8AA213D
:1024200057E711F0040118BF042161F3471284F843
:10243000AA215AE712F0040211D094F8AA2104212B
:1024400061F3840284F8AA2143E7B4F87631FFF7F8
:1024500082BA1A6802601860C4E96D004EE694F80A
:10246000AA1162F3840184F8AA1132E71168196095
:102470001360C4E96D3317E50C4840F6384100F0AD
:10248000B7FF94F8E80094F8E930FEF7A3BB0748DB
:1024900040F6345100F0ACFFFEF7CABB034840F6EB
:1024A000345100F0A5FFFEF73EBF00BF5C420100C3
:1024B00038300020000000002DE9F04F16461A4683
:1024C000376852F80C5B93B0894600211C46B9600E
:1024D00003F1080A09F132013B680A93804610466D
:1024E000032210F0FCFD04F11C0709F12E01042267
:1024F000504610F0F4FD052209F13E01384610F077
:10250000EEFD3846052101F095FF94F8212000F0FA
:102510003F0060F30502012884F821200AD999F8C8
:10252000432002F01F010539C2F304000B2984F88F
:10253000220002D913B0BDE8F08FB9F83870678275
:1025400099F83BC099F83A1095F8DC0041EA0C2163
:102550005209A18262F38400B9F8363085F8DC00B4
:10256000ADF830300CF0E6FD024695F8DC000B9239
:10257000C0F382000CF0E0FD0B9AC74B99F835C010
:10258000A18A40F2E24BBFB20BFB07F7104407FBF6
:1025900000F000F5742000F23F20A3FB00304FEA6A
:1025A000570EAEF19603800C0BFB0CFBA062C4F837
:1025B0003CB0E362B9F83C30B84AADF83630184662
:1025C00042F2107E80B20EFB0070B54B3A4401F12E
:1025D000060E0138B2FBF7F2B0FBF7F0A5F8C60023
:1025E00090B270453B44A5F8D200B3FBF7FCA5F8C8
:1025F000CAC002DD401A063880B25146A5F8CE00A6
:10260000042205F1E00010F06AFD99F820C009F1FC
:10261000220BCCF380135946062210A88DF83C30CB
:1026200010F05DFD99F820200A9B4FF48071A9F805
:10263000201093F82A0096F816A0C2F340138DF8E4
:1026400038300B930BF0B0F906220146002840F019
:10265000E98009F12F0010F06DFDBAF1FF0F00F0D5
:10266000EB805946504609F123020AF005FC99F81F
:102670002220023289F8222010A9062209F129001D
:1026800010F02DFD95F8DC20608AA18ABDF8363067
:10269000A9F83A30C2F38202A9F8360089F83C2042
:1026A000A9F83810284607F041F949462082A9F8D0
:1026B00006004046D6F8048005F0D0FE238AA8F82C
:1026C00006300D2388F804300B9BD8F80000002B4F
:1026D00000F0C38094F809E0237A94F80BC0A17A43
:1026E00094F8212041EA0C2143EA0E234B4042F0AA
:1026F00040020121638484F8212088F8201041469B
:1027000005F0ACFE05F0B4FED6F81080654A4FF037
:10271000000B312308F25240A0FB02012B60C5E9F7
:1027200001BB5BA3D3E90023FDF7DAFCF368BDF836
:102730003020A46AA3F5AE7A20F07F4040F2E24157
:10274000AAEB080CE86001FB021A01205A4602219C
:10275000E2443F1B01F048FD0A9C204606F006FCBF
:10276000821C514B0094D2B25846012102F0E4FF82
:1027700001287FD00A9B93F82830DB0772D42846C3
:1027800007F0D4F8DFF81CB1A7FB0B8940A3D3E90D
:102790000023044649464046FDF7A2FC434A0695FD
:1027A00020F07F47A7FB0223072101FB073340F2FC
:1027B0002111B66808913E4907913E490591B8EB51
:1027C000020069EB0301EB68049300254FF47A7271
:1027D00000230395FDF784FC2DA3D3E90023844651
:1027E000AAFB0B01CDE9017CFDF77AFC053420F052
:1027F0007F40E4B2313E3346009022462846012114
:1028000002F02EFF30F0020304D02B484FF49171F8
:1028100000F0EEFD01221046022101F0E5FC13B0AC
:10282000BDE8F08F09F1280109F12F0010F057FCE5
:10283000BAF1FF0F7FF415AF0622002109F129003C
:1028400010F078FC9DF83C3089F8223010A906225F
:1028500009F1230010F043FC14E79DF8383088F8A4
:1028600020304CE70023012200931846114602F065
:1028700063FF84E705F088FE0A9B83423FF47AAF4A
:102880000D484FF4DE7100F0B3FD73E7AFF3008045
:102890008D49FD1A0700000083DE1B437FC3C90179
:1028A000FF59620200CA9A3B25C400008D49FD1AF7
:1028B00095C30000A9C30000A84201000000000069
:1028C0002DE9F041D0E90CC7D0F82C800CEB0704BF
:1028D0003034A0450E46154618D81B4F18A3D3E92F
:1028E0000023ACFB0701FDF7FBFBA4EB080420F081
:1028F0007F40306012A3D3E90023A4FB0701FDF75A
:10290000EFFB20F07F402860BDE8F0810E4C0CA367
:10291000D3E90023A8FB0401FDF7E2FB20F07F438D
:1029200007F130003360A0FB040105A3D3E90023C5
:10293000FDF7D6FB20F07F402860BDE8F08100BFA6
:102940008D49FD1A0700000000CA9A3B00000000F4
:102950002DE9F04F91F82070164612688FB00C46A2
:102960004FF0000B1D46C2F808B0C7F3C013D2F8F1
:1029700000A08DF82C302831062281460CA82F6843
:1029800010F0ADFB94F82080A4F820B0717D96F88B
:1029900016B0C8F3401311F001018DF828309846A5
:1029A0004FF0060200F0E28004F1220104F12F0052
:1029B00010F095FBBBF1FF0F00F0E080584604F1EA
:1029C000230204F122010AF057FA94F8223002336C
:1029D0000CA984F82230062204F1290010F07FFBB4
:1029E0006B8AAA8AE386BAF83030638722870CF0B4
:1029F0009FFB84F83C00384606F098FF0346288287
:102A00002146E3804846746805F028FD2B8AE38060
:102A10000D2320682371B8F1000F00F0A28095F813
:102A200009E02B7A95F80BC0A97A95F8212041EAA4
:102A30000C2143EA0E234B4042F0400201216B84FB
:102A400085F8212084F82010214605F007FD05F0C7
:102A50000FFDD6F81090DFF860B1002409F2524063
:102A600031233B60C7E901444DA3D3E90023A0FB18
:102A70000B01FDF735FBB5F812C0F36820F07F407D
:102A8000F86022460221012040F2E24808FB0CF8DF
:102A9000A3F5877501F0A8FB504606F0A9FB021DBF
:102AA000D2B2414B00920121204602F045FE23465E
:102AB000032201210094204602F03EFE384606F033
:102AC00035FF06974FF41973D6F808C0374A0893B4
:102AD000374B07920593FB680493A5EB090588FB28
:102AE0000B89461D2EA3D3E9002340464946ACF18D
:102AF00031070394FDF7F4FA104619464FF47A7241
:102B00000023FDF7EDFA26A3D3E9002384464946C6
:102B10004046CDF808C0FDF7E3FA21A3D3E900232E
:102B20008446A5FB0B01CDF804C0FDF7D9FAF6B237
:102B300020F07F403B46009032462046012102F0C3
:102B40008FFD30F0020304D01A4840F2652100F0F6
:102B50004FFC01221046022101F046FB0FB0BDE8F8
:102B6000F08F9DF8283084F820306DE704F12F00B5
:102B700010F0E0FABBF1FF0F7FF420AF0622002136
:102B800004F1290010F0D6FA9DF82C3084F8223098
:102B90000CA9062204F1230010F0A1FA20E700BFDF
:102BA0008D49FD1A07000000E1C40000E5C40000E3
:102BB000F9C40000EC42010000CA9A3B000000008A
:102BC0002DE9F04F83B004460DF068FB10F0FF0FC5
:102BD00012D10DF04DFB0DF01BFC0DF001FC0DF0C2
:102BE00045FE0DF0C5FBCA4821460DF03FFA03B083
:102BF000BDE8F04F0DF024BB0DF070FB5FFA80F8DC
:102C00000DF0F6FBC6B20DF0FDFB07460DF03AFEE7
:102C1000C5B20DF025FE82460DF0B2FB81460DF0E7
:102C200027FB0DF0F5FB0DF0DBFB0DF01FFE0DF0AB
:102C30009FFB002E40F0AB80002D40F0BA80FF27B4
:102C4000B8F1000FCFD0A37D190700F1A880002EA6
:102C500040F0EE81012005F0EDFC8046002800F0F8
:102C6000FE81A3685FFA89F6002B00F0D580A37D72
:102C70001A0740F1E98198F8200010F00F0340F0A6
:102C80009E8098F82130252B00F21681042005F053
:102C9000D1FC0028A7D00DF00BFDA36A814643B9F3
:102CA000E28C40F2712303FB02F3B0FBF3F203FB6F
:102CB000120923689748DB680722A3FB000102FB87
:102CC000031191A3D3E90023FDF70AFAA0F24233DE
:102CD0004B4588D30DF02EFBD4F808A00DF00CFB6B
:102CE00098F820200178C2F38012D20101F050013F
:102CF00042F025020A432221027041708346384681
:102D00000AF060FEE27D0090D207014640F1238286
:102D1000002800F020829BF80020584642F0400234
:102D200000F8022B062210F0DAF9062208F122013F
:102D30000BF1080010F0D3F904220AF108010BF19D
:102D40000E0010F0CCF903220AF10C010BF1120075
:102D500010F0C5F90122BAF812308BF81520019352
:102D60000DF0A6FCD4F8109000F5DB62B9F1000F6D
:102D700000F00382019B40F2E24101FB03F1B9F153
:102D8000000F02DB4A4540F2C7808944F7E7A07D87
:102D9000F9B2C0F3C0000AF033FE074650E7002E38
:102DA0007FF458AF38460AF09DFE00287FF452AFFA
:102DB00019E75FFA8AF00AF063FE074640E7012B45
:102DC0004ED198F821300C2B7FF40DAF08F1280973
:102DD000C00949463A460AF01BFF00287FF456AF67
:102DE000E37DDB0700F1E581A37D98F82000C3F3C4
:102DF0008012B2EBD01F00F00982C3F3C103980721
:102E00000AD598F92030002B06DA98F82D3003F017
:102E1000C003402B3FF43AAF98F8200010F00F03A6
:102E20001ED198F82130252B3FF6DDAE94F91620FF
:102E3000002AC0F22081252B98BF4FF000093BD813
:102E4000002B3FF4D0AEA368002B7FF4CCAE002D56
:102E500014BF3946FF214A4630460CF079F8C2E6E5
:102E6000062B00F00281022B00F05B81012B23D1A5
:102E700098F821300C2B7FF4B6AE08F1280AC0096F
:102E800051463A460AF0C4FE8146002840F08C8143
:102E9000A37D98F82000C3F38012B2EBD01F00F09E
:102EA0008F81C3F3C103980704D598F92030002B14
:102EB000C0F2918198F8200000F00F0004287FF400
:102EC00092AE98F82130252B3FF68DAEA37DDA0720
:102ED0007FF589AE0DF010FA98F820300278C3F330
:102EE0008013B3EBD21F7FF47EAE0830062208F1C8
:102EF000220110F0E4F8814600287FF474AE98F8BF
:102F000021309DE7AFF3008000CA9A3B000000002B
:102F1000DDEC00008D49FD1AC5489BF81510A9EBA2
:102F20000202A0FB0232C2F38F220131ABF816205D
:102F30008BF81510BAF81200BAF81410A28AABF880
:102F40001C20ABF81800ABF81A1005220AF11C017E
:102F50000BF11E0010F0C3F89AF822109BF8232002
:102F600061F304028BF823200CF0E2F89BF8232095
:102F700060F347128BF8232058460DF03FF90DF00F
:102F800083F9002840F00481AA4821460DF06EF82C
:102F9000002E40F0F880227942F00101D307217120
:102FA00000F1FC8005F064FB0822064602714FF632
:102FB000FF7298F82080C28059462422203010F0F9
:102FC0008EF896F82030B460C8F3401868F34513C3
:102FD00086F820300DF010FB0021306108460DF01E
:102FE00019F90021A9EB0000706108460DF00CF9F9
:102FF000002D08BFFF27B777E37DB06113F0010311
:1030000000F0B980009BB3F1000B18BF4FF0010B2B
:10301000737F6BF30003737705F02AFB3146F06092
:10302000306805F03DFB03B0BDE8F04F05F048BB4C
:10303000394628460AF086FD00287FF40BAEA37DB2
:103040001B077FF5D0AD05E6FF2F6DD0237EDB1B80
:10305000B3FA83F35B09002B7FF40DAEDCE6764810
:1030600040F2AA2100F0C4F9FBE598F82130252BA5
:103070007FF6DCAE20E7A268002A7FF4DCAE962063
:103080000DF0D6F900200DF03BF9002D14BF3946A4
:10309000FF21304600220BF05BFF00287FF4A3AD38
:1030A0000DF02AF998F820300278C3F38013DB0181
:1030B000054602F0700243F0030313430C222B7009
:1030C00038466A700AF07EFCE37DDE07014640F177
:1030D0008E80002800F08B802B78284643F0400338
:1030E00000F8023B06220FF0FAFF08F12201062247
:1030F00005F108000FF0F3FF28460DF07FF80DF002
:10310000C3F8002840F08D800DF0CAFAA37D4B482B
:1031100043F001032146A37503B0BDE8F04F0CF066
:10312000A5BF98F8213086E698F82000C3F3401335
:10313000C0F3801293427FF471AE062208F122019F
:1031400004F11F000FF0BBFFB0FA80F35B09002B06
:103150007FF491AD60E6A27D9BF80010C2F380126F
:10316000584662F3861100F8021B062204F1190189
:103170000FF0B5FFD9E59B464AE78BF816908BF820
:1031800017909146D6E60DF0EDF88AF8A50002E713
:10319000294840F2233100F02BF9F5E6264840F2A9
:1031A000493100F025F9FDE698F821304FF000098B
:1031B00046E638460AF006FC00287FF42DAE13E6FA
:1031C0005146062204F119000FF079FF00283FF460
:1031D00096AEA37D65E698F82D3003F0C003402B32
:1031E0007FF468AE98F821304FF0010928E6A37DFE
:1031F0002A78C3F38013284663F3861200F8022B63
:1032000004F1190106220FF06AFF6EE74946062213
:1032100004F119000FF053FF00283FF437ADA37DF0
:10322000EBE5054840F2A53100F0E2F86CE700BF9D
:103230005917B7D1A5EE00005C440100F1EC000085
:1032400038B5094D4FF0FF324FF0FF3328460FF0ED
:10325000E8FF044600F0E2FE10B120460DF074FDD8
:103260000FF038F8EEE700BF3479002010B50F48B2
:103270000F4C0EF087FC206098B10FF0E2FB206845
:103280000FF0DAFB2268536823B19B6C13B1094934
:1032900010469847206843689B6A2BB198470020E6
:1032A00010BD6FF01500FBE71846F9E798490100DB
:1032B0001C000020B93200002DE9FF41484E494C66
:1032C0003746306843685B6C83B1984770B13068AB
:1032D00043681B6C53B1984740B1306843685B6BDF
:1032E0003BB9386843685B6A002B33D104B0BDE852
:1032F000F08198470028F4D02368002B4AD10DF1C3
:103300000B053068012229460FF0B7FB0128D8D100
:10331000CDE9005000220023042000F02BFEDFF84E
:10332000CC800546C8F800000028DFD0037D9BB1A3
:10333000022BDBD104231A4603A938680FF09DFB4A
:10334000042203A905F108000FF09CFFBDF80E3020
:10335000236010E09847C9E703231A4603A9386899
:103360000FF08BFB9DF80E302360032203A905F1BB
:1033700008000FF087FFD8F8000008300FF0ACFF0E
:103380002368984206D2D8F800000DF0DDFC002337
:10339000C8F80030DFF854803868D8F80030226868
:1033A00033B911460FF055FB23681B1A236088E7D9
:1033B0009D689989002329440FF05FFBD8F800101D
:1033C00025688B892D1A03448B812560002D7FF49D
:1033D00078AF05480FF043FFC8F8005071E700BF11
:1033E0001C0000202000002034790020180000205C
:1033F000F8B505460F464FF02002EFF3118382F334
:103400001188BFF36F8F234C20680FF01AFB2068E0
:103410000FF012FB002D36D12E46206804210FF04C
:1034200015FB2068FF210FF011FBB11D2068C9B208
:103430000FF00CFB2068AA210FF008FB36B1013D0C
:1034400015F8011F206809BB0FF000FB2068F9B2D6
:103450000FF0FCFA2068C7F307210FF0F7FA206895
:10346000C7F307410FF0F2FA2068390E0FF0EEFAB9
:10347000FEE701332F2A08BF1E46EA5C002AF8D176
:1034800035449E1BC9E700263346F6E70FF0DEFA07
:10349000D6E700BF1C0000202DE9F041194888B094
:1034A00000F0C2FD00220023CDE9062300236FF0C7
:1034B0000802CDE90323CDE9013300931249134BF0
:1034C0001348104E134D4FF480620FF005F84FF083
:1034D000FF324FF0FF3330460FF0A3FE044600F1F9
:1034E0000807A3891BB920460DF02EFCEFE73846EC
:1034F000D5F800800FF0E8FE014640460FF0A6FA2E
:10350000EFE700BF24790020E83C002041320000B2
:10351000240000201C000020F8B5124EB3680C24D3
:1035200004FB00340123054663724FF02003EFF3E0
:10353000118183F31188BFF36F8F23682BB160680B
:103540001A682260834208BF626081F31188BFF36A
:103550006F8F03B9F8BDD3E9017229463046B847E9
:10356000E3E700BF847800202DE9F8430368D0F832
:1035700008E09E680C46CFB24AB10C237B435EF84C
:1035800003309A425ED013B11B68002BF9D14FF083
:103590002003EFF3118C83F31188BFF36F8F0C219D
:1035A00079430EEB01031D7A0135EDB21D728CF3E8
:1035B0001188BFF36F8F62B34FF0804C4FF0030858
:1035C000CCF8088393F809C0BCF1000F15D14FF077
:1035D0002008EFF3118988F31188BFF36F8FC2F8C9
:1035E00000C0D3F80480B8F1000F27D15A604EF81C
:1035F000012089F31188BFF36F8F4FF080430321BF
:10360000C3F80413BCF1000F03D0D2E90132214604
:103610009847012D10D1012C07D10C4D2B7823B9DF
:103620004FF4A57010F0DFF92C7006EB870601222D
:10363000B37803F180431A60002005E0C8F8002049
:103640005A60D6E76FF00F00BDE8F883C23800205B
:10365000154B07B51A6882B14FF08042D2F80423A7
:10366000D1070AD500221A601B680093009B0F4BFC
:103670009B68587A08B9FFF74FFF0D4B1A6882B163
:103680004FF08042D2F8042392070AD500221A6034
:103690001B680193019B012003B05DF804EBFFF769
:1036A0003BBF03B05DF804FB0001004084780020BC
:1036B00004010040821C084B22F07F42C3F84025E1
:1036C000D3F80425904200D17047D3F80405821C3A
:1036D00022F07F42F2E700BF00100140044B0022BD
:1036E00082B01A601B680193019B02B0704700BF53
:1036F0004011014008B5FFF7F1FF074B074AD3F827
:1037000040051368C01A20F07F4003441360BDE8F1
:1037100008400FF089B800BF00100140B000002041
:1037200038B514480EF02EFA00B34368124D1B68EA
:10373000012100249847C5F80845FFF7CFFF0F4B3C
:103740004FF40032C3F880214FF48033C5F80433BE
:1037500022460121112000F037F9112000F002F972
:10376000074A0123136020462B6038BD4FF0FF301D
:10377000FBE700BFA84901000010014000E100E0A4
:103780000810014070B5284B284C1968D4F804255E
:10379000274D521AB0F1FF3F08BF284622F07F4361
:1037A00012022FD4013820EAE070A842A8BF2846B0
:1037B00001334FF480361844C4F80863A84294BF1C
:1037C0000D184D19D4F80405D4F84015FFF786FFFD
:1037D000091A21F07F4120F07F430129C4F84035C8
:1037E000C4F8446304D10F2010F0FDF8FFF776FF12
:1037F000D4F804052B1A23F07F43012B04D1FFF7E3
:1038000059FF0BE00020D3E725F07F43C4F8403593
:10381000D4F804052D1A023D2B02F0D44FF4803366
:10382000C4F8043370BD00BFB00000200010014098
:10383000FFFF7F004FF02002EFF3118382F3118826
:10384000BFF36F8F064AD2F80405064A1268801A41
:1038500020F07F4083F31188BFF36F8F704700BF64
:1038600000100140B000002010B5114C114AA261B7
:103870000323C4E90433104BE36122664FF48063F1
:103880000E4A0F492362626600231022E01DA362E4
:103890006362E3622367E3666367A2660FF0F9FB86
:1038A000084920460FF0F5FB2023A37110BD00BF8F
:1038B000B4000020B8490100D3380020C3380020EC
:1038C000C1490100C5490100094A0A4993680968CC
:1038D00019670949D8664B6843F080534B60002351
:1038E00083F31188BFF36F8F9368186F704700BF21
:1038F000F43700208C49010000ED00E00F498A6890
:103900004FF030001044EFF3098C80E8F01F2020C6
:1039100080F31188BFF36F8F094F4FF000664A6A3A
:103920008A603E60D06E0023D36680F3118802F176
:10393000300090E8F01F8CF309887047F4370020BE
:1039400004ED00E01EF0040F0CBFEFF30880EFF36E
:103950000980816911F8021C0229FFD001B50FF01E
:103960008DFB01BD43B2002B08DB012200F01F00DC
:1039700002FA00F05B09024A42F82300704700BFD8
:1039800000E100E043B2002B0DDB01225B0900F0F7
:103990001F0002FA00F02033034A42F82300BFF36D
:1039A0004F8FBFF36F8F704700E100E0054B420976
:1039B00000F01F0053F82220012303FA00F010400A
:1039C000704700BF00E100E043B2002BA8BF03F145
:1039D000604301F10101B8BF064B4FEA4111ACBF92
:1039E00003F5614300F00F00C9B2B4BF195483F866
:1039F0000013704714ED00E008B572B6044B186A66
:103A000018B100221A620FF05EFD62B608BD00BF59
:103A1000F4370020C0E918120A44203A22F00702C5
:103A200008491360009B5360019B9360029BD36025
:103A30004FF08073D36121F0010100239161026591
:103A4000C3667047AF2A0100F8B506460C46174614
:103A50001D4600F099F9094B3C4424F007049E6090
:103A6000284684F30988002163B681F31188BFF3E7
:103A70006F8F002200230FF01AF800BFF4370020E8
:103A8000014910220A60704710ED00E072B6404014
:103A900080F31188BFF36F8FBFF34F8F30BF62B6D3
:103AA000BFF36F8F704700BF30BFFFF7FDBF00BF90
:103AB0000E4A08B50E4B22F07F029A60BFF34F8F7B
:103AC000BFF36F8FD3F8882022F47002C3F88820E8
:103AD000EFF3148323F0040383F314880EF092F8B9
:103AE0000EF09AF800F01EF90EF0C8F80000000081
:103AF00000ED00E001B572B60B4A106A00281EBF47
:103B0000002111620FF0DFFC62B6EFF30580A0F137
:103B100010004FEAC0000549014409C99847BDE8B3
:103B20000140034908470000F4370020543E0100DB
:103B3000093D00000FF021FB202080F31188084888
:103B40004FF40061401880F30988EFF314800221DC
:103B5000084380F31488BFF36F8FFFF7A9FF0000BD
:103B6000E8490020EFF30880EFF30981724601B5C0
:103B700000F04EF801BD00BF0C4B9A6A9A6A9A6A2F
:103B8000920708D55A6B9A6A120604D518B19A6A38
:103B900022F080029A62054B9A6A9A6A9A6A9A6A35
:103BA000002042F0FF029A620870704700ED00E0CA
:103BB0000D4B9A6A9A6A9A6A920508D59A6B9A6A24
:103BC000120404D518B19A6A22F400429A62064B94
:103BD0009A6A9A6AD20558BF9A6A9A6A002042F491
:103BE0007F429A620870704700ED00E0074B9A6AC6
:103BF0009A6A9A6A9A6A9A6A9A6A9A6A6FEA024210
:103C00006FEA12429A620020704700BF00ED00E0A8
:103C100070B5364B5B688AB00E46C3F308030025C7
:103C200085F31188BFF36F8F02F07F41B1F17F4FB1
:103C300011D102F00C0108290DD0110701D406465C
:103C400001250022033B8DF80720032B47D8DFE82E
:103C500003F0043E423B2E46F3E7244BDA6A920718
:103C60003DD4DC6A14F0804408D028331B78EBB1D3
:103C70000DF107010120FFF77FFF04469DF8073093
:103C800093B92022314602A80FF029FA099B45B3C7
:103C9000C3F3080222B96FEA53236FEA432309935F
:103CA00002A920460FF0E8F90AB070BD104B1B784E
:103CB0002BB10DF107010120FFF77AFFDDE70D4B76
:103CC000188884B2002CD9D0FFF790FFD5E70DF10A
:103CD00007010020CFE70DF107010020ECE70024E9
:103CE000CCE723F4FF7323F00103D8E700ED00E0F5
:103CF00029ED00E02AED00E0024A536943F0100389
:103D00005361704700ED00E0044B9968586A88429F
:103D100003D003494FF080520A607047F437002007
:103D200004ED00E0044800232021C2180133272BB2
:103D300082F80013F9D1704700E100E038B504467D
:103D40004FF02003EFF3118583F31188BFF36F8FDA
:103D50000EF0DCF90A4B9B68A3420BD1094B5A6861
:103D6000C2F3080212B92846FFF7AEFD5A6842F0C6
:103D700080525A602846BDE838400FF02EBD00BF83
:103D8000F437002000ED00E01FB5084B0193084B0D
:103D90000293084B039301AB0093074A074B0121A1
:103DA000684600F093F805B05DF804FB00000020C1
:103DB0000000000000000B060000002000000120B1
:103DC000DFF884C0F0B50646002710468F4200DBBE
:103DD000F0BD56F827E0DEF8044094B343B1651E09
:103DE0002C4219D11F2C17D9DEF80020154213D10F
:103DF000202CC2B2DEF80050DEF808000FD9B4F172
:103E0000004F0ED8013CB4FA84F4C4F11F046400DE
:103E1000072A44EA000406D96FF01500D8E7082401
:103E2000F6E73E24F4E725F01F05154345F010059D
:103E300044F00104CCF80820501CCCF80C50CCF80D
:103E400010400137C2E700BF90ED00E0034B0522B0
:103E50005A60BFF34F8FBFF36F8F704790ED00E054
:103E6000BFF35F8F014B00225A60704790ED00E076
:103E700013490868082810B51ED8FFF7F1FF114C48
:103E800049680022904201F10C0105D10E4B1870D7
:103E9000FFF7DCFF002010BDA26051F80C3C23F0BE
:103EA0001F03134343F01003E36051F8043C43F055
:103EB000010323610132E5E74FF0FF30EBE700BF7C
:103EC0004C40010090ED00E0D33C002010B5034CC5
:103ED00001232278FFF774FF207010BDD33C00202F
:103EE0004FF02003EFF3118283F31188BFF36F8F3C
:103EF00006490123C1F840354FF08041C1F87835BB
:103F000082F31188BFF36F8F0020704700E00140FB
:103F100020B1034B800143F001031847704700BFF5
:103F200030400100074A0346106828B9D96831B10A
:103F3000196921B1136070476FF0440070476FF04A
:103F4000150070475C01002070B500F0FD06012EE1
:103F500005460BD106480FF05FF9044620B1314603
:103F600008300FF078F92575204670BD0024FBE776
:103F7000547900202DE9F0410228DDE90667044666
:103F80000FD0042802D060B100251EE01149097845
:103F90000129F9D13478012C1AD0022CF4D1013640
:103FA000013F0D480FF038F905460028ECD000F12C
:103FB0000808012140460FF04EF92C752EB127B1AB
:103FC0003A46314640460FF05DF92846BDE8F0819B
:103FD0000024E4E7507800207479002010B50D4BE0
:103FE0001B78012B04460CD1037D012B04D0032B3D
:103FF0000ED06FF0150010BD042104F108000FF081
:104000004AF9054B214618680FF029F90020F2E71C
:104010000221F2E75078002060010020014B1B686C
:104020001B6918475C010020044B054A1B6810609F
:104030000BB1DB6818476FF0120070475C0100207D
:10404000600100202DE9F0411446C21D22F0030258
:10405000671EBFB2186082B005460E4601FB07001E
:104060001480002104220FF065F8B7B1023CA4B21D
:1040700004FB066304FB06F71D44FF1A4FF6FF78A6
:104080000422013CE8190DEB0201A4B201950FF0E6
:1040900026F84445A5EB0605F2D102B0BDE8F08153
:1040A00070B5056882B095B1EB1D23F003030422BF
:1040B000044629460DEB02001E880FF010F8019B04
:1040C00023B1DA1D22F00302013E16802360284648
:1040D00002B070BD0B6870B50C46054683B107335E
:1040E00023F003031E880136B6B204222146284677
:1040F0000EF0F5FFEB1D23F003031E80256070BD5D
:104100000126F2E702FB0100704700BF401A80B2AF
:10411000B0FBF2F0704700BF531E11449BB242B196
:10412000DB43CA18013811F8013D00F8013F914204
:10413000F9D17047014402E010F8013B1BB98842F5
:10414000FAD1002070470120704700BF106008605E
:10415000704700BF0A6803460068904205BF00220E
:104160000A6000201A60704710B414682060146858
:10417000616010BC10607047884203D01AB1436878
:1041800013607047002070470B68834209D02AB142
:10419000586810601A680A6018467047002BF9D1F9
:1041A000FAE70023F8E700BF2DE9F041DFF834809B
:1041B0000B4E0C2706F130044546221D21462846A9
:1041C0000C3CFFF7C3FFB442A5F10805F5D1043F4D
:1041D0003B1DA8F12008A4F13006EBD1BDE8F08129
:1041E0006C020020DC01002030B403460C469AB17A
:1041F00001EB41010801144D03EB430100EB810188
:104200002944487A0D7AA84204BF01300872214639
:10421000184630BC0CF04ABB01EB41020A4D1201BA
:1042200000EB400302EB83032B449D7ADA7AAA4227
:1042300001D030BC7047054D01329A7201236B5496
:1042400030BC0CF079BB00BFE8010020E401002085
:1042500070B51C4606460D4622B363782278D21A02
:1042600012F0030205D0012A40D00133DBB22370E3
:104270000FE03022042112FB05110C2212FB061262
:1042800001331B496068DBB20A4423702146FFF703
:104290006BFF184B3046012229465A550CF04CFB57
:1042A000002070BD0CF02AFB0028D6D029463046ED
:1042B0000CF010FB0028D0D005EB45031A010C4987
:1042C00006EB460302EB83030B449A7ADB7A9A42AD
:1042D000C3D163782278D21A920702D00233DBB2BC
:1042E0002370D4E902039847002070BD104670BDCA
:1042F000E8010020E40100204C490B5C002B00F099
:1043000094802DE9F04F4A4B4FF03C0B87B00022D0
:104310000BFB003B0A5400EB40070BF10401039236
:1043200003EB071701924FF0030988460290002320
:10433000D7E9090105AA0593FFF71EFF07F1240637
:10434000834688B3059C25786378ED1A05F003054C
:10435000012D06D1013B6370D4E902039847059C07
:1043600063782078C31A03F00303012B4FF0000297
:1043700031465FFA80FA0DD0B86AFFF705FF627820
:104380002378C4F804B09B1A03F00303012B84F8CC
:1043900001A043D0D7E9090105AAFFF7EDFE012DE1
:1043A000834629D00028CDD197F82E3097F82F20BA
:1043B0009A4203D087F82F300123019397F82C30CD
:1043C00097F82D209A4203D087F82D3001230393CC
:1043D00009F1FF395FFA89F9B9F1FF0FA7F10C076D
:1043E000A5D1DDE9013AB3B1039BA3B91A46514601
:1043F00050460CF05BFA0EE0B9F1000F01D1002835
:10440000D2D0DDF808A0094A01235146504602F8EF
:104410000A300CF091FA07B0BDE8F08F62702146C7
:1044200058464246FFF7A0FEB4E77047E40100207B
:10443000E8010020A1B14B1EDBB210B4411EC4182C
:10444000002011F8013F3BB15BB25A1E134001300E
:1044500013F0FF03C0B2F7D1A142F2D110BC7047F4
:104460000846704770B50A4E336804460D4643B19E
:10447000586821460468AAB218462346BDE8704031
:10448000184704480DF07EFB03463060F0E700BF9C
:10449000A80200208C4001002DE9F04F827F89B0F6
:1044A00001230492C377002A40F0A580437FFF2BAD
:1044B000814600F09F800BF00BFDD9F8142099F88D
:1044C0001C3099F81DA0801AFF2B20F07F4B00F0C4
:1044D000FC80D9F818305B4594BF00230123029378
:1044E000BAF1FF0FD9F8008000F0F2800025CDF876
:1044F0000C900AEB4A0A08EB0A144FEA0A1AA3685E
:104500005B4552D8A66918F80AA0ABEB030B1D4413
:10451000002E77D0029B002B7AD0E38B0193A36A05
:104520005BB11A6832B11A7A22B9A28B01998A4218
:1045300040F2C7804FF000021A72019A94F82C10D2
:10454000013292B2E28300292CD0A18B914229D270
:10455000002B00F0B4801A7A012A23D00126002211
:104560005A601A72A27863789B1ADBB2012B19D1B8
:10457000E768013AA270AFB1039A63695069616A52
:10458000EB1A184420F07F402369002E40F09380FE
:10459000E28BB847A369E683002B029BE67018BF45
:1045A00001230293BAF1FF0FA3D1DDF80C90294645
:1045B00099F80B3099F80A209A420AD10132D2B206
:1045C000022A1CBF13460493049A89F80B2008BFE3
:1045D000002309EB8303D9F82440D960002289F82D
:1045E0001F204B46012204210320A44609B0BDE848
:1045F000F04F6047C27709B0BDE8F08FDDE905B53F
:10460000DDF81CA0A36A0BB10026A8E71E46A9E7A7
:1046100094F92D301F468033F4D0BAF1FF0FF1D05A
:10462000E38BA28B0193934228BF9B1A6268CDF85B
:104630001CA0394603FB0222DF1BCDE905B553461A
:104640000020B6460D469246BB4603E018F80330FC
:10465000FF2BD3D01BB203EB430308EB03121B0168
:10466000976838448645C9D391690029EED0B2F8DD
:104670001EC0918B8C45E9D3566892F92D90ACEB16
:10468000010116B1F71B06FB0176D778E278BA4232
:10469000A1EB09010AD319F1800F07D08B4501DA8C
:1046A000B24503D94D45D1D1B245CFD2DDE905B5EB
:1046B000DDF81CA033E74FF6FF72B84772E701261A
:1046C00050E74FF001021A7237E7049B029307E7A5
:1046D000002319466CE700BFC27F002A40F018860D
:1046E0002DE9F04F837AC17A8FB0834640690590F7
:1046F00099424FF001008BF81E0000F097800344B0
:10470000DBB2022B08BF13460BEB83028BF80A3097
:10471000D368059A0293D31823F07F43CBF8143063
:1047200001230D939BF809309BF81D200692DBF8BE
:104730000020DBF80410079304921A46013B0C9109
:10474000DBB2002A00F0178301EBC30800230893B3
:10475000FF23019347467B68079397F80380BB7854
:10476000BA460798994603EB430203EB8202591CB1
:10477000434500EB8205CBB200F088819AF8001027
:10478000994208BF00238AF8023010F82210042949
:1047900040F27A81072900F288806A78049C02EB53
:1047A000420004EB00140001A7780A906078C01B57
:1047B00010F0FF000FFA82FC77D0052965D00128A0
:1047C00037D19BF81DE0DBF80030BEF1FF0F17D0AA
:1047D0000EEB4E00724503EB001000F052810026F4
:1047E00001E0724570D0F04690F800E0D0F80890F3
:1047F000BEF1FF0F0EEB4E004E4403EB0010F0D164
:1048000000260529A66000F0278167709BF81C3000
:10481000934222D0EB6A00202870A8620BB1296B6A
:1048200098479AF803809AF802309AE70D9202921C
:1048300078E704215B460122DBF824400846A047C4
:104840000C9A8AF8029057460123BA420893A7F1BE
:10485000080300F022811F467DE7FF2307298BF81C
:104860001C3040F0DB816868DBF81430C21A11029A
:1048700000F1CB8122F07F43029A1344DBF8182029
:104880009A4288BFCBF81830C4E76E68002E96D1E4
:10489000AE68002E93D1EE68002E90D12E69002EC6
:1048A0008DD16E6936F07F4689D1EA6A00210120F8
:1048B0002970A862002A3FF454AF296B90479AF8F8
:1048C00003809AF802304CE7904517D008EB48086F
:1048D00003EB081C077882688CF80070FF2F06D065
:1048E00007EB470703EB0717B8681044B860164496
:1048F0000529A6600BD0A7786A7886E70CEB4C0CEC
:1049000003EB0C1C02788BF81D202978E2E7DBF81A
:10491000147003970BF0DCFA029BA0EB070C2CF051
:104920007F473B449E42804640F2A2806269F31A70
:104930006668002E53D0A88A002850D0013880B273
:104940009E42E18BA88225D206F101090B9211E06B
:1049500000F1E87000F5D43000F5A570CE46099A54
:104960000139A3EB0E0389B2801A9E42E183606293
:104970000ED2A88A884280F0B181D4E90820DFF8FD
:10498000C8E20992AF4A86449645E1D8B646E6E7C2
:104990000B9AA88A814221D2206A099006F1010E61
:1049A0000B9207E06062B146A88A013189B2814268
:1049B0004B4411D2099A606ADFF88C921044A14AE4
:1049C00081449145EED8A0F1E870A0F5D430A0F56F
:1049D000A5706062F146E7E70B9AE183A083D5E911
:1049E000010EA66A03447244A360626136B1316865
:1049F00021B1A0EB0E007060A36862691CF4000F87
:104A000021D13B4493421BD99B1A0022A3606261CF
:104A1000E968A3692A690B44934288BF9B1AAA7D5F
:104A200098BF0023A36102B1E270049B0A9A194661
:104A3000019B8B5463786A78019201336370E9E6D5
:104A4000D21A0023E2E70399A1EB080727F07F477A
:104A50009F4213D2DB1BD5E7DBF8147003970BF0F2
:104A600037FA029BA0EB070C2CF07F4780463B44B3
:104A700061690B449A1B6261002359E73A44D21AD8
:104A8000DFE7844600263DE799466CE60C9A5746D8
:104A9000BA42A7F108037FF4DEAE9BF81DA0069B87
:104AA000B3EB0A0318BF012307930D9B002B40F0C3
:104AB0006A819BF80920DBF80030DBF804100493CE
:104AC000531E0991DBB2002A00F00C8101EBC308F0
:104AD0000D9B0393D8F8043098F801400593019B8F
:104AE000FF2B58D0DDF804A0049A0FFA8AF303EBE9
:104AF00043034FEA031C02EB031312F80C2001924C
:104B00000022FF201870DBF800709BF81D1007EBE7
:104B10000C068142B56818BF029311D18DE0B5EB48
:104B20000C0506D1BEF81EE0B6F81E90F14500F265
:104B3000D28017F803C0BCF1FF0F084671D0614660
:104B400001EB410C07EB0C1E4FEA0C13DEF808C01A
:104B5000AC45E4D9029BB560FF28317066D18BF873
:104B60001DA0FF2906D001EB410107EB0117B96831
:104B70004D1BBD60997801315970002AAFD0D36ABE
:104B8000039911709162002BA9D0116B00209847F6
:104B9000019BFF2BA6D198F80230A3422ED0059E90
:104BA00098F8002004EB440104EB8101013416F86D
:104BB0002100E4B2A24208BF0024042806EB8102CF
:104BC0001AD192F801A0049B0AEB4A0C03EB0C13D8
:104BD0004FEA0C1C5D7898782D1A15F0FF0535D03A
:104BE000039B06F82130D36A0121916208460BB17C
:104BF000116B984798F80230A342D1D1099A4245E7
:104C0000A8F108036CD0984664E7029A1B1A23F0B7
:104C10007F439A428CBFD31A00232FE60BF058F93A
:104C200022E6029BB56086F800C0614600B200EB48
:104C30004000000107F800A093E707F80C108BF87C
:104C40001DA097E7592B177F5A2B17FF918ADBF886
:104C500014604FF6FF70814231D083F82C50506AB7
:104C6000D7689862106918625F60D2E906095768D0
:104C70009861A7EB060E106A99831EF4000FC3E932
:104C8000039091680CD12EF07F4E714481B19960F0
:104C900003995962D9834FF001015D61D97030E702
:104CA000F61B26F07F46B14205D9891B0029EED1BB
:104CB0000D460021EBE7711A0D460021E7E74FF0A2
:104CC000010183F82C10506AD1689862106918624B
:104CD00059602946C9E7029B65463CE70B9A59E6AD
:104CE0009BF81DA0069B9A4500F01C83089B002B97
:104CF00000F03B8300239BF81DA08BF81E30BAF117
:104D0000FF0F00F0C483069BFF2B00F0DA83DBF873
:104D10000030994D0AEB4A0203EB02130A279E6802
:104D20000BF0D6F8DBF81430DBF82820C41A24F096
:104D30007F440334B4422CBF1B199B1923F07F44DA
:104D40008046204690470BF0C3F8A0EB0800A4EB88
:104D5000080420F07F4024F07F440330A04207F194
:104D6000FF3740F2EA82002FDAD140F6710128467F
:104D7000FEF73EFBD4E70D9B002B00F0EC82079B77
:104D80000893FF2301930BF0A3F8DBF800300393A3
:104D9000059B9BF81DA0C01A20F07F43BAF1FF0FBE
:104DA000049300F0B080DDF808904FF000082EE08A
:104DB000DC8B003C18BF0124DBF818108A4224BFAA
:104DC0004FF0FF328BF81C209D6934BF8A1A0022F5
:104DD000CBF8182035B15A789978521AD2B2022AF3
:104DE00000F05781996A00229A60039A12F80E2007
:104DF0008BF81D205C680CBB11B10A7A012A5ED0C9
:104E00009A785A709BF81DA0BAF1FF0F7BD0039BD4
:104E10000AEB4A0203EB02134FEA021E9A684A4564
:104E200000F29F82049993F82C00891AA9EB0209D9
:104E3000904404910028BBD10446BDE711B10A7A21
:104E4000012A3CD0DA8B0B92002A40F033819A8BF6
:104E50005D7809929446661C0A96D3E9087100228F
:104E60000C93664604E0013EA446731C624412D0D3
:104E7000DFF80CC1414B39448C449C45F3D8DDF834
:104E800028C0A1F1E871013EA1F5D431731CA1F550
:104E9000A5716244ECD10C9B0A975962002800F07E
:104EA0000D820B9909980144D9830AE0039A9C600A
:104EB00012F80E208BF81D205A68002A9DD09D788C
:104EC0004A46059CDBF81410586904EB0806741A6E
:104ED000270200F1D28024F07F442244904280F0E7
:104EE000D580121A00209A60039A58611146019ADF
:104EF00001F80E2001355D70CDF804A09BF81DA0CF
:104F0000BAF1FF0F83D1DDE906019BF80920DBF838
:104F100004300993504518BF0121531E0791DBB29D
:104F2000002A00F02681099A02EBC308D8F8043061
:104F300098F801400593019BFF2B63D0DDF804A096
:104F4000039A0FFA8AF303EB43034FEA031C02EBC5
:104F5000031312F80C2001920022FF201870DBF8D6
:104F600000709BF81D1007EB0C068142B56818BF56
:104F7000049319D1E8E000BF90400100592B177F3E
:104F80005A2B17FFB5EB0C0506D1BEF81EE0B6F89C
:104F90001E90F14500F2A08017F803C0BCF1FF0F8E
:104FA000084600F08D80614601EB410C07EB0C1EBA
:104FB0004FEA0C13DEF808C0AC45E3D9049BB5609A
:104FC000FF28317040F081808BF81DA0FF2906D0AA
:104FD00001EB410107EB0117B9684D1BBD609978E2
:104FE00001315970002AA6D04FF00001D36A117028
:104FF00000219162002B9ED0116B00209847019BED
:10500000FF2B9BD198F80230A3422FD0059E98F831
:10501000002004EB440104EB8101013416F8210067
:10502000E4B2A24208BF0024042806EB81021BD18F
:1050300092F801A0039B0AEB4A0C03EB0C134FEA16
:105040000C1C5D7898782D1A15F0FF0547D04FF0AD
:10505000000306F82130D36A0121916208460BB1A2
:10506000116B984798F80230A342D0D1099A424573
:10507000A8F108037DD0984658E7891B21F07F41AD
:10508000914214D2521A9042FFF42BAF801A0022A0
:1050900029E7996A002C7FF4A6AE19B10A7A012A91
:1050A0003FF404AF8BF81CA0CBF818509BE60844E3
:1050B000801AECE74FF0000C9D78CDF824C0CAE6CA
:1050C000049BB56086F800C0614600B200EB40006A
:1050D000000107F800A079E7049B65466FE7918A15
:1050E000DBF814604FF6FF70814232D083F82C5009
:1050F000506AD7689862106918625F60D2E9060941
:1051000057689861A7EB060E106A99831EF4000F8A
:10511000C3E9039091680CD12EF07F4E714481B1A8
:10512000996000215962D9834FF001015D61D97006
:1051300013E7F61B26F07F46B14216D9891B0029DA
:10514000EED10D460021EBE707F80C108BF81DA0FF
:1051500045E74FF0010183F82C10506AD16898623E
:105160001069186259602946C8E7711A0D46002176
:10517000D6E79BF81DA0DBF800400022D146B9F12C
:10518000FF0FCA4611D00FFA8AF303EB430304EB77
:1051900003111B01886A10B1057A012D14D014F88F
:1051A00003A0BAF1FF0FEED1CA46002A3FF49AAD30
:1051B000069B53457FF49AAD089B002B00F0758148
:1051C00000238BF81E309AE59BF81C30FF2B844699
:1051D0004FD0DBF81800029B83424AD2C01ADCE9A8
:1051E0000053AB420F7839D2FF2FA5EB030535D022
:1051F0008E69B5424FF000033FD3CDE903179E46B9
:1052000001963A461CE0D8F808100B1F0429734495
:1052100009D9AB42019F28BF2B46BB4203D99B1B38
:1052200001D0834227D2D8F81800A25C08448E44EB
:10523000AB1B0EEB0601FF2A01911CD08D421AD345
:1052400002EB420204EB02181201D8F828100029E0
:10525000D9D0097A0129D6D1A25CEAE700238B6074
:10526000CB8B013BCB834FF0020301228CF808303B
:1052700085E70020B3E7DDE903178B603D464FF07B
:10528000FF0E00E005462AB202EB420004EB0018D4
:105290000001D8F808609E423BD29B1B8B60205CCB
:1052A000FF28AE46EED102EB420212018BF81D70D0
:1052B000A35C0B70B94604F802A0D1E7049E9642A5
:1052C0007FF6EFAD0A9F0D9504F1010C334605E022
:1052D000264632440130934280B211D9814E824D2C
:1052E00039448E19AE42F3D86646A1F1E8713244D2
:1052F000A1F5D43101309342A1F5A57180B2EDD86A
:10530000099CDDE90C350444A0B209905962C8E556
:105310007047F31ABEF1FF0FC8F80830A0D00FFA9B
:105320008EF2C0E7089B002B00F0A78000238BF8CB
:105330001E30079B002B40F0C1809BF81F206AB1F4
:10534000DBF824405B46012203210420A4460FB071
:10535000BDE8F04F60470D9B8BF81E300FB0BDE8E5
:10536000F08FA2EB09029A60CDE59BF80930DBF8DB
:1053700004605C1EE4B2002B3FF4BCAC0123079335
:1053800006EBC4044FF000094FF0010A0196637860
:10539000E178666899420CD15CE0012B56D06378C5
:1053A00022780133DBB29A4208BF0023994263702E
:1053B00050D01BB203EB430203EB820306EB8302E4
:1053C00016F82330022B1BD0032BE6D153789BF821
:1053D0000810994211D9DBF80010107903EB430350
:1053E00001EB031383F82D00C2F82890D36A13B1A0
:1053F000116B906A9847E178D1E7C2F828A0F5E7E9
:10540000D2E901C19CF80030D2F80CE0DBF8005082
:10541000DBF81400FF2B02D00F68874226D09BF8E0
:105420001D30086000210BE003EB430005EB001882
:105430000001D8F81870AFB9D8F808802B5C414447
:10544000FF2BF1D18CF80030CEF80010D36AC2F8EF
:105450002890CCE7019AA242A4F108033FF466AF7A
:105460001C4694E7D8F808000144EBE703EB43033C
:105470001B01DEF80010EB5CE2E79BF80930DBF87B
:1054800004605C1EE4B2002B7FF47AAF4EE70AF0B2
:1054900005FD00287FF451AFCBF818000AF018FD85
:1054A0009BF81F20CBF8140049E79BF80930DBF884
:1054B00004605C1EE4B28BB1079261E79BF81DA00B
:1054C0001DE40AF005FD04460AF0D8FC9BF81DA077
:1054D00000287FF41CACCBF8144018E4089B8BF830
:1054E0001E300CE45A2B17FF592B177FF0B4049F82
:1054F0009DF81440069E00283ED1DFF884C04D1E62
:105500008CF80810CCF80020EDB249B105EB450548
:1055100002EB0511914281F82D00A1F13001F9D182
:105520005A1E8CF80930CCF80470D2B27BB107EB6C
:10553000C2025660114612F8083903EB4300E41A20
:105540008F4203EB8003E4B206EB8306F1D19CB9F2
:10555000079ACCF82020089ACCF824204FF6FF7345
:10556000099AACF80A402046CCE90544F0BCCCF8D6
:105570002820ACF81C3070470120F0BC704700BFF9
:10558000AC0200200A4B2C2202FB003210B4546AF9
:105590005CB100EB800200EB420003EB8003A44609
:1055A000012210BC03210220604710BC704700BFDD
:1055B000AC0200202DE9F843DFF8A080BDF82CE014
:1055C0002C2707FB008704467D6805EBC10C15F806
:1055D00031909CF8036004EB840504EB4504751CD2
:1055E0000846EDB29CF80110A94598BF0025A942D4
:1055F00008EB84082FD0DCF8041006EB460406EB19
:10560000840601EB86044FF0040901F826906360DC
:10561000089BA360099BE3600A9B23610C9BA36129
:10562000119B63620D9BE3610E9B23620F9BE36200
:105630000221109B6270A4F814E02363A1628CF82D
:105640000350D7E908359847434649460022A84702
:10565000A06ABDE8F8830120BDE8F883AC02002011
:1056600030B58BB0DDE90E540095109D0194029584
:10567000BDF84440129D03940495139C149D059419
:105680000695159C169D07940024CDE90854FFF754
:1056900091FF0BB030BD00BFDFF898C02DE9F04797
:1056A0002C2707FB00C704467D68BDF82C809DF8B9
:1056B00030E0084605EBC10115F830A0CE7891F82E
:1056C000019004EB840504EB4504751CEDB2AA457A
:1056D00098BF0025A9450CEB840A28D0D1F804C056
:1056E00006EB460406EB84060CEB86044FF0050936
:1056F0000CF826906360089BA360099BE3600A9BFB
:1057000023610D9BE36202260E9B627084F816E013
:105710002363A4F81480A662CD70D7E908359847B2
:10572000534600220421A847A06ABDE8F087012063
:10573000BDE8F087AC020020DFF884C02DE9F0411D
:105740002C2707FB00C704467D68084605EBC1010E
:1057500015F83080CE7891F801E004EB840504EB75
:105760004504751CEDB2A84598BF0025AE450CEB6D
:10577000840421D0D1F804C006EB460E06EB8E0659
:105780000CEB86084FF0060E0CF826E0C8F82C301B
:105790000226069B88F80120C8F83030C8F8286037
:1057A000CD70D7E908359847234600220421A84741
:1057B000D8F82800BDE8F0810120BDE8F08100BFE5
:1057C000AC0200200AF084BB401A20F07F407047F2
:1057D000012813D808B548B931B10846062209494D
:1057E0000DF07DFC074808BD064808BD41B10846DC
:1057F000062205490DF073FC034808BD00207047E0
:10580000014808BDD8020020E002002070B506461D
:1058100000200D4603F0D4FB88B903F021FD10F001
:1058200006040CD12946062226B906480DF057FC7D
:10583000204670BD04480DF052FC204670BD0C247B
:10584000204670BDD8020020E0020020022801D0CE
:105850000120704738B5044608461D4604F076F826
:1058600010B10020287038BD204638BD00230370D9
:105870000B70704708B50248FEF754FB002008BDC6
:105880003041010030B5838983B023B1037D0446E4
:10589000C3B1022B04D06FF01505284603B030BD0C
:1058A00001A901F03DF9019B054613B118460DF021
:1058B000B0FC002DF1D120460BF046FA0025284619
:1058C00003B030BD01A9019300F0EAFB0028F2D03B
:1058D0000DF09FFC019D002DEDD0284601F00EFE3D
:1058E0006871019901480DF0DAFEE4E7447900207F
:1058F00070B51A4E1A4D82B00CE00DF087FC2246AE
:10590000BDF80210044601F0E1FD20460DF081FCD7
:105910000CF0E0FC0DF1020101A802F0F9FA0446D6
:105920004FF0FF324FF0FF3300211320002CE4D161
:10593000019B5BB102F0BAFB019C204601F0DEFD49
:105940000199607128460DF0AAFEE3E74FF0FF329F
:105950004FF0FF3330460CF057FDDBE7E4780020D2
:1059600044790020D0B51B4888B002F023F80446E3
:1059700000282CD1184801F0D9FD002600276FF02F
:1059800009030393CDE90667CDE90144134B14499C
:10599000049400944FF4E07212480CF09DFD1249FB
:1059A00010480EF022F86FF007030393CDE9066765
:1059B000CDE901440D4B0E49049400944FF400725C
:1059C0000C480CF089FD0C490A480EF00EF82046F0
:1059D00008B0D0BDE478002080740020F1580000A9
:1059E000E8400020F4020020D0400100FD590000F2
:1059F000A842002068030020DC4001002DE9F04FA0
:105A0000B14CB24FDFF8D892DFF8D882DFF8D8A2D5
:105A100085B0AD484FF0FF324FF0FF3302210CF05C
:105A200071FF002840F09F80E36803F4F833B3F57A
:105A3000805F00F09480236A03F4F833B3F5804F5D
:105A400000F0DE800025E268236AA1496FF310327E
:105A5000D1F800B0E2606FF310339E4A2362BFF3C7
:105A60005B8F52E8003F23F0010142E8001000285C
:105A7000F7D1BFF35B8FDB0744BF0023C7E90033D7
:105A8000BBF1000F40F3C380D9F80030D8F80020F4
:105A90003E68ABEB030313448F4A1360002E00F003
:105AA000E0807279002D67D1042A39D8022A00F2E9
:105AB0008F8040F2291150460192FDF799FC019A1E
:105AC0000396002A40F08A80B7215046FDF790FCEB
:105AD000039B00221A6003A802F07CFBD9F8003077
